{"contracts/Marketplace.sol":{"Marketplace":{"abi":[{"inputs":[],"stateMutability":"nonpayable","type":"constructor"},{"inputs":[],"name":"ReentrancyGuardReentrantCall","type":"error"},{"anonymous":false,"inputs":[{"indexed":true,"internalType":"address","name":"seller","type":"address"},{"indexed":true,"internalType":"address","name":"nft","type":"address"},{"indexed":true,"internalType":"uint256","name":"tokenId","type":"uint256"}],"name":"ListingCanceled","type":"event"},{"anonymous":false,"inputs":[{"indexed":true,"internalType":"address","name":"seller","type":"address"},{"indexed":true,"internalType":"address","name":"nft","type":"address"},{"indexed":true,"internalType":"uint256","name":"tokenId","type":"uint256"},{"indexed":false,"internalType":"uint256","name":"newPrice","type":"uint256"}],"name":"ListingUpdated","type":"event"},{"anonymous":false,"inputs":[{"indexed":false,"internalType":"uint256","name":"newTotal","type":"uint256"}],"name":"ListingsCountUpdated","type":"event"},{"anonymous":false,"inputs":[{"indexed":true,"internalType":"address","name":"seller","type":"address"},{"indexed":true,"internalType":"address","name":"nft","type":"address"},{"indexed":true,"internalType":"uint256","name":"tokenId","type":"uint256"},{"indexed":false,"internalType":"uint256","name":"price","type":"uint256"}],"name":"NFTListed","type":"event"},{"anonymous":false,"inputs":[{"indexed":true,"internalType":"address","name":"seller","type":"address"},{"indexed":true,"internalType":"address","name":"buyer","type":"address"},{"indexed":true,"internalType":"address","name":"nft","type":"address"},{"indexed":false,"internalType":"uint256","name":"tokenId","type":"uint256"},{"indexed":false,"internalType":"uint256","name":"price","type":"uint256"}],"name":"NFTSold","type":"event"},{"anonymous":false,"inputs":[{"indexed":false,"internalType":"uint256","name":"oldFee","type":"uint256"},{"indexed":false,"internalType":"uint256","name":"newFee","type":"uint256"}],"name":"PlatformFeeUpdated","type":"event"},{"anonymous":false,"inputs":[{"indexed":false,"internalType":"uint256","name":"newTotal","type":"uint256"}],"name":"VolumeUpdated","type":"event"},{"inputs":[],"name":"admin","outputs":[{"internalType":"address","name":"","type":"address"}],"stateMutability":"view","type":"function"},{"inputs":[{"internalType":"address","name":"nft","type":"address"},{"internalType":"uint256","name":"tokenId","type":"uint256"}],"name":"buyNFT","outputs":[],"stateMutability":"payable","type":"function"},{"inputs":[{"internalType":"address","name":"nft","type":"address"},{"internalType":"uint256","name":"tokenId","type":"uint256"}],"name":"cancelListing","outputs":[],"stateMutability":"nonpayable","type":"function"},{"inputs":[],"name":"getAllListings","outputs":[{"components":[{"internalType":"address","name":"nft","type":"address"},{"internalType":"uint256","name":"tokenId","type":"uint256"}],"internalType":"struct Marketplace.ListingId[]","name":"","type":"tuple[]"}],"stateMutability":"view","type":"function"},{"inputs":[{"internalType":"address","name":"nftAddress","type":"address"},{"internalType":"uint256","name":"tokenId","type":"uint256"}],"name":"getListing","outputs":[{"components":[{"internalType":"address","name":"seller","type":"address"},{"internalType":"uint256","name":"price","type":"uint256"}],"internalType":"struct Marketplace.Listing","name":"","type":"tuple"}],"stateMutability":"view","type":"function"},{"inputs":[{"internalType":"address","name":"nftAddress","type":"address"},{"internalType":"uint256","name":"tokenId","type":"uint256"},{"internalType":"uint256","name":"price","type":"uint256"}],"name":"listNFT","outputs":[],"stateMutability":"nonpayable","type":"function"},{"inputs":[{"internalType":"address","name":"","type":"address"},{"internalType":"uint256","name":"","type":"uint256"}],"name":"listings","outputs":[{"internalType":"address","name":"seller","type":"address"},{"internalType":"uint256","name":"price","type":"uint256"}],"stateMutability":"view","type":"function"},{"inputs":[{"internalType":"uint256","name":"","type":"uint256"}],"name":"listingsList","outputs":[{"internalType":"address","name":"nft","type":"address"},{"internalType":"uint256","name":"tokenId","type":"uint256"}],"stateMutability":"view","type":"function"},{"inputs":[],"name":"platformFeeBasisPoints","outputs":[{"internalType":"uint256","name":"","type":"uint256"}],"stateMutability":"view","type":"function"},{"inputs":[{"internalType":"uint256","name":"newFeeBasisPoints","type":"uint256"}],"name":"setPlatformFee","outputs":[],"stateMutability":"nonpayable","type":"function"},{"inputs":[],"name":"totalListings","outputs":[{"internalType":"uint256","name":"","type":"uint256"}],"stateMutability":"view","type":"function"},{"inputs":[],"name":"totalVolumeTraded","outputs":[{"internalType":"uint256","name":"","type":"uint256"}],"stateMutability":"view","type":"function"},{"inputs":[{"internalType":"address","name":"nft","type":"address"},{"internalType":"uint256","name":"tokenId","type":"uint256"},{"internalType":"uint256","name":"newPrice","type":"uint256"}],"name":"updateListing","outputs":[],"stateMutability":"nonpayable","type":"function"},{"inputs":[{"internalType":"address","name":"to","type":"address"}],"name":"withdrawTo","outputs":[],"stateMutability":"nonpayable","type":"function"}],"evm":{"bytecode":{"linkReferences":{},"object":"608060405260fa600255348015601457600080fd5b5060016000819055506035678649941208b2013f60c01b609260201b60201c565b604d6754fff7b3b0adf2f460c01b609260201b60201c565b33600160006101000a81548173ffffffffffffffffffffffffffffffffffffffff021916908373ffffffffffffffffffffffffffffffffffffffff1602179055506095565b50565b6131b5806100a46000396000f3fe6080604052600436106100dc5760003560e01c8063ae73ccec1161007f578063c58bfb6611610059578063c58bfb66146102b0578063c78b616c146102db578063f772adf114610306578063f851a4401461032f576100dc565b8063ae73ccec1461021e578063b2ddee0614610249578063c1171d6114610272576100dc565b806372b0d90c116100bb57806372b0d90c1461017357806388700d1c1461019c578063a82ba76f146101d9578063ad05f1b4146101f5576100dc565b806207df30146100e157806312e8e2c31461011f5780635adc19c714610148575b600080fd5b3480156100ed57600080fd5b506101086004803603810190610103919061267d565b61035a565b6040516101169291906126db565b60405180910390f35b34801561012b57600080fd5b5061014660048036038101906101419190612704565b6103ab565b005b34801561015457600080fd5b5061015d610633565b60405161016a9190612731565b60405180910390f35b34801561017f57600080fd5b5061019a6004803603810190610195919061274c565b610639565b005b3480156101a857600080fd5b506101c360048036038101906101be919061267d565b6108ae565b6040516101d091906127c6565b60405180910390f35b6101f360048036038101906101ee919061267d565b6109b5565b005b34801561020157600080fd5b5061021c600480360381019061021791906127e1565b611001565b005b34801561022a57600080fd5b506102336117b9565b6040516102409190612912565b60405180910390f35b34801561025557600080fd5b50610270600480360381019061026b919061267d565b6118b4565b005b34801561027e57600080fd5b5061029960048036038101906102949190612704565b611d22565b6040516102a79291906126db565b60405180910390f35b3480156102bc57600080fd5b506102c5611d76565b6040516102d29190612731565b60405180910390f35b3480156102e757600080fd5b506102f0611d7c565b6040516102fd9190612731565b60405180910390f35b34801561031257600080fd5b5061032d600480360381019061032891906127e1565b611d82565b005b34801561033b57600080fd5b50610344612261565b6040516103519190612934565b60405180910390f35b6005602052816000526040600020602052806000526040600020600091509150508060000160009054906101000a900473ffffffffffffffffffffffffffffffffffffffff16908060010154905082565b6103bf676ed9e410754807b260c01b612287565b6103d3679cbde3391a5bd90c60c01b612287565b6103e767e7bf5896afade61d60c01b612287565b6103fb67544d2ed7c0ac3f9a60c01b612287565b61040f6718cec53e0ddcb55b60c01b612287565b600160009054906101000a900473ffffffffffffffffffffffffffffffffffffffff1673ffffffffffffffffffffffffffffffffffffffff163373ffffffffffffffffffffffffffffffffffffffff161461049f576040517f08c379a0000000000000000000000000000000000000000000000000000000008152600401610496906129ac565b60405180910390fd5b6104b367633ce7217267532360c01b612287565b6104c7679cc5618c91d8d35760c01b612287565b6104db67fbc86848b43f69f360c01b612287565b6104ef674eb948269f0d00c360c01b612287565b61050367dd1530604aae822660c01b612287565b61051767892ba88f3a7d2be460c01b612287565b61052b671c4e41e50d907e1260c01b612287565b6103e8811115610570576040517f08c379a000000000000000000000000000000000000000000000000000000000815260040161056790612a18565b60405180910390fd5b610584679f41b454bce8a86860c01b612287565b6105986792fe8935de02ce1260c01b612287565b6105ac67862a9fc41d8e8a0860c01b612287565b600060025490506105c767758ddda03bfa7c7460c01b612287565b816002819055506105e267aa96267e0819072260c01b612287565b6105f6679c9e8c9bb318c40d60c01b612287565b7fd347e206f25a89b917fc9482f1a2d294d749baa4dc9bde7fb495ee11fe4916438183604051610627929190612a38565b60405180910390a15050565b60035481565b61064d67a5b2ed9eb16386ca60c01b612287565b610661679cbde3391a5bd90c60c01b612287565b61067567e7bf5896afade61d60c01b612287565b61068967544d2ed7c0ac3f9a60c01b612287565b61069d6718cec53e0ddcb55b60c01b612287565b600160009054906101000a900473ffffffffffffffffffffffffffffffffffffffff1673ffffffffffffffffffffffffffffffffffffffff163373ffffffffffffffffffffffffffffffffffffffff161461072d576040517f08c379a0000000000000000000000000000000000000000000000000000000008152600401610724906129ac565b60405180910390fd5b61074167633ce7217267532360c01b612287565b610755679cc5618c91d8d35760c01b612287565b610769672cbcb7ab6d5c7f6360c01b612287565b61077d67f4857fa3b82c21d860c01b612287565b61079167e9e8eb1f4aa3c99560c01b612287565b6107a567ea639a4ba3949e6260c01b612287565b6107b967440fe6a63c4fe84e60c01b612287565b600073ffffffffffffffffffffffffffffffffffffffff168173ffffffffffffffffffffffffffffffffffffffff1603610828576040517f08c379a000000000000000000000000000000000000000000000000000000000815260040161081f90612aad565b60405180910390fd5b61083c67fb0500ad568d016660c01b612287565b610850674ca30d909c96022460c01b612287565b610864670c653d308a546b9960c01b612287565b8073ffffffffffffffffffffffffffffffffffffffff166108fc479081150290604051600060405180830381858888f193505050501580156108aa573d6000803e3d6000fd5b5050565b6108b66125b4565b6108ca67e7b4fa1257d532e060c01b612287565b6108de6743903863999b9ecd60c01b612287565b6108f267bdd67e3638b770ea60c01b612287565b600560008473ffffffffffffffffffffffffffffffffffffffff1673ffffffffffffffffffffffffffffffffffffffff16815260200190815260200160002060008381526020019081526020016000206040518060400160405290816000820160009054906101000a900473ffffffffffffffffffffffffffffffffffffffff1673ffffffffffffffffffffffffffffffffffffffff1673ffffffffffffffffffffffffffffffffffffffff168152602001600182015481525050905092915050565b6109c9670aca705bf2d28cd860c01b612287565b6109d161228a565b6109e567054ff7c91583ee0960c01b612287565b6109f967f35983178433e75560c01b612287565b610a0d677fcbf0c69cb797cf60c01b612287565b610a21672a717405f914079060c01b612287565b6000600560008473ffffffffffffffffffffffffffffffffffffffff1673ffffffffffffffffffffffffffffffffffffffff16815260200190815260200160002060008381526020019081526020016000206040518060400160405290816000820160009054906101000a900473ffffffffffffffffffffffffffffffffffffffff1673ffffffffffffffffffffffffffffffffffffffff1673ffffffffffffffffffffffffffffffffffffffff1681526020016001820154815250509050610af46761f448ce056caf4a60c01b612287565b610b0867b261d762cc3d78e460c01b612287565b610b1c67bc8405122cffe12860c01b612287565b6000816020015111610b63576040517f08c379a0000000000000000000000000000000000000000000000000000000008152600401610b5a90612b19565b60405180910390fd5b610b7767097b1499f6c2a39360c01b612287565b610b8b67e2d4f37743afe55660c01b612287565b610b9f67b8f9c4b3c3335c8060c01b612287565b610bb3676c19e01a443d254760c01b612287565b80602001513414610bf9576040517f08c379a0000000000000000000000000000000000000000000000000000000008152600401610bf090612b85565b60405180910390fd5b610c0d6749bc69e97eff44c460c01b612287565b610c21670e1a54e53433846660c01b612287565b610c35678ba4c0515bf1fc5f60c01b612287565b600061271060025434610c489190612bd4565b610c529190612c45565b9050610c6867af8f8ba559a18a1c60c01b612287565b610c7c670eceb5ab96a35d9460c01b612287565b60008134610c8a9190612c76565b9050610ca067ddddc0cb1fc98bf960c01b612287565b3460036000828254610cb29190612caa565b92505081905550610ccd67e3a25c65ba7cb2a860c01b612287565b610ce167c4ac5a986c35c14660c01b612287565b600083600001519050610cfe67f16c0516fa1f631b60c01b612287565b610d12671dce569fa91cd9e060c01b612287565b600084602001519050610d2f67be05599b4d5be23260c01b612287565b600560008873ffffffffffffffffffffffffffffffffffffffff1673ffffffffffffffffffffffffffffffffffffffff1681526020019081526020016000206000878152602001908152602001600020600080820160006101000a81549073ffffffffffffffffffffffffffffffffffffffff021916905560018201600090555050610dc567cd118a711ada8c3560c01b612287565b610dd9677f983f11a747e99860c01b612287565b610de387876122d0565b610df767ff201b74fa994ed160c01b612287565b610e0b67f591810a74bff0d460c01b612287565b8173ffffffffffffffffffffffffffffffffffffffff166108fc849081150290604051600060405180830381858888f19350505050158015610e51573d6000803e3d6000fd5b50610e66671fd5ef8cedbf4d4460c01b612287565b610e7a675adfa5bc473508e360c01b612287565b8673ffffffffffffffffffffffffffffffffffffffff166342842e0e8333896040518463ffffffff1660e01b8152600401610eb793929190612cde565b600060405180830381600087803b158015610ed157600080fd5b505af1158015610ee5573d6000803e3d6000fd5b50505050610efd67ec136feb73e19bef60c01b612287565b610f1167a44a5b975dcfed0860c01b612287565b7fb658a1c3e5e5f1592da099ee46b4f25a33531bdd8c470d0c5415bac1146e9fe5600354604051610f429190612731565b60405180910390a1610f5e67b4a962b8b7667ebe60c01b612287565b610f726718ffcd5ee68c451960c01b612287565b8673ffffffffffffffffffffffffffffffffffffffff163373ffffffffffffffffffffffffffffffffffffffff168373ffffffffffffffffffffffffffffffffffffffff167f1b81ea9818518fffa07ee623cfd9ce8af1900f3e0c918f2ca4fcfc9745cdc1658985604051610fe8929190612a38565b60405180910390a45050505050610ffd61259f565b5050565b611015673f49c38103e2e43a60c01b612287565b61102967f7c06962478940e460c01b612287565b61103d672c5ec41ef4dacae760c01b612287565b6110516742bf2e5056b24ebb60c01b612287565b60008111611094576040517f08c379a000000000000000000000000000000000000000000000000000000000815260040161108b90612d61565b60405180910390fd5b6110a86793137d317e0a2c3260c01b612287565b6110bc67ca0411af55701b0e60c01b612287565b6110d06785fa8b3e5cada37d60c01b612287565b60008390506110e96733a00dcb12a1f38460c01b612287565b6110fd67b751e6de986ea8ac60c01b612287565b61111167ea35bb2470f8040660c01b612287565b3373ffffffffffffffffffffffffffffffffffffffff168173ffffffffffffffffffffffffffffffffffffffff16636352211e856040518263ffffffff1660e01b81526004016111619190612731565b602060405180830381865afa15801561117e573d6000803e3d6000fd5b505050506040513d601f19601f820116820180604052508101906111a29190612d96565b73ffffffffffffffffffffffffffffffffffffffff16146111f8576040517f08c379a00000000000000000000000000000000000000000000000000000000081526004016111ef90612e0f565b60405180910390fd5b61120c670d39b5b3c582f27360c01b612287565b6112206758e8ce9f1cb7094060c01b612287565b611234671b5349ec71fcd77b60c01b612287565b6112486718b1322d3376de7b60c01b612287565b3073ffffffffffffffffffffffffffffffffffffffff168173ffffffffffffffffffffffffffffffffffffffff1663081812fc856040518263ffffffff1660e01b81526004016112989190612731565b602060405180830381865afa1580156112b5573d6000803e3d6000fd5b505050506040513d601f19601f820116820180604052508101906112d99190612d96565b73ffffffffffffffffffffffffffffffffffffffff1614801561130c575061130b678ad04eb568219fb460c01b6125a9565b5b806113ab57508073ffffffffffffffffffffffffffffffffffffffff1663e985e9c533306040518363ffffffff1660e01b815260040161134d929190612e2f565b602060405180830381865afa15801561136a573d6000803e3d6000fd5b505050506040513d601f19601f8201168201806040525081019061138e9190612e90565b80156113aa57506113a96779bab4ae0724bd2260c01b6125a9565b5b5b6113ea576040517f08c379a00000000000000000000000000000000000000000000000000000000081526004016113e190612f09565b60405180910390fd5b6113fe677e29a5ca5642a68e60c01b612287565b611412675aa990a5947b3c7c60c01b612287565b61142667e1997cd64681a98e60c01b612287565b61143a6733866a7c0e8f603f60c01b612287565b6000600560008673ffffffffffffffffffffffffffffffffffffffff1673ffffffffffffffffffffffffffffffffffffffff168152602001908152602001600020600085815260200190815260200160002060010154146114d0576040517f08c379a00000000000000000000000000000000000000000000000000000000081526004016114c790612f75565b60405180910390fd5b6114e467181fb12dfd17490460c01b612287565b6114f86709a154e59a4b2b1760c01b612287565b60405180604001604052803373ffffffffffffffffffffffffffffffffffffffff16815260200183815250600560008673ffffffffffffffffffffffffffffffffffffffff1673ffffffffffffffffffffffffffffffffffffffff168152602001908152602001600020600085815260200190815260200160002060008201518160000160006101000a81548173ffffffffffffffffffffffffffffffffffffffff021916908373ffffffffffffffffffffffffffffffffffffffff160217905550602082015181600101559050506115db6776d4c333e57d6e0860c01b612287565b6115ef6714ddd953f76240ee60c01b612287565b600660405180604001604052808673ffffffffffffffffffffffffffffffffffffffff16815260200185815250908060018154018082558091505060019003906000526020600020906002020160009091909190915060008201518160000160006101000a81548173ffffffffffffffffffffffffffffffffffffffff021916908373ffffffffffffffffffffffffffffffffffffffff1602179055506020820151816001015550506116ac67c66e48e4d6e5674960c01b612287565b600460008154809291906116bf90612f95565b91905055506116d867cda7ec4954e3b62360c01b612287565b6116ec6726e0e8bf582a21db60c01b612287565b7f3111f8d6f242b90271d2bbb051d9789e25e045533dcafa32b060cb8def4778c260045460405161171d9190612731565b60405180910390a161173967a3075c02442cd62c60c01b612287565b61174d67078e01a589c0f64360c01b612287565b828473ffffffffffffffffffffffffffffffffffffffff163373ffffffffffffffffffffffffffffffffffffffff167fbeab3a2bb824b124a8a1eb465eec003338d61b414db132d37e9b3a984fdcf010856040516117ab9190612731565b60405180910390a450505050565b60606117cf67a59b7bb00dca122560c01b612287565b6117e367a707fe72bf00192f60c01b612287565b6117f767c1c411c973f0856b60c01b612287565b6006805480602002602001604051908101604052809291908181526020016000905b828210156118ab57838290600052602060002090600202016040518060400160405290816000820160009054906101000a900473ffffffffffffffffffffffffffffffffffffffff1673ffffffffffffffffffffffffffffffffffffffff1673ffffffffffffffffffffffffffffffffffffffff16815260200160018201548152505081526020019060010190611819565b50505050905090565b6118c8675c727ac0fbf00ed960c01b612287565b81816118de675eb82d93aa7b881460c01b612287565b6118f267b77e88c43ab03b0c60c01b612287565b6119066717e176031f4f9bf060c01b612287565b61191a671f78a0e15cd6f64760c01b612287565b600073ffffffffffffffffffffffffffffffffffffffff16600560008473ffffffffffffffffffffffffffffffffffffffff1673ffffffffffffffffffffffffffffffffffffffff168152602001908152602001600020600083815260200190815260200160002060000160009054906101000a900473ffffffffffffffffffffffffffffffffffffffff1673ffffffffffffffffffffffffffffffffffffffff16036119fc576040517f08c379a00000000000000000000000000000000000000000000000000000000081526004016119f390613029565b60405180910390fd5b611a1067cfb88b7c04e961ba60c01b612287565b611a2467094b83f3e60bda2660c01b612287565b611a386757a398d78666cc2a60c01b612287565b611a4c67ed2c6e594783217f60c01b612287565b8383611a62671f234aea9b2a1e7560c01b612287565b611a76678ae083626080a58360c01b612287565b611a8a67915837eb0ff55c2460c01b612287565b611a9e673530e241c901018460c01b612287565b3373ffffffffffffffffffffffffffffffffffffffff16600560008473ffffffffffffffffffffffffffffffffffffffff1673ffffffffffffffffffffffffffffffffffffffff168152602001908152602001600020600083815260200190815260200160002060000160009054906101000a900473ffffffffffffffffffffffffffffffffffffffff1673ffffffffffffffffffffffffffffffffffffffff1614611b7f576040517f08c379a0000000000000000000000000000000000000000000000000000000008152600401611b7690613095565b60405180910390fd5b611b93679ec21fd91cbc369d60c01b612287565b611ba767fd18c5e9c232e67660c01b612287565b611bbb6753a7387df8358c7f60c01b612287565b611bcf677542ed297de9ca1960c01b612287565b611be367de26665eec76f4c960c01b612287565b600560008773ffffffffffffffffffffffffffffffffffffffff1673ffffffffffffffffffffffffffffffffffffffff1681526020019081526020016000206000868152602001908152602001600020600080820160006101000a81549073ffffffffffffffffffffffffffffffffffffffff021916905560018201600090555050611c7967bbf41d32cab5a46860c01b612287565b611c8d67c77a2a3c6de764b860c01b612287565b611c9786866122d0565b611cab67f9db57830df2ecde60c01b612287565b611cbf6792abe8d838e2aa5960c01b612287565b848673ffffffffffffffffffffffffffffffffffffffff163373ffffffffffffffffffffffffffffffffffffffff167ffb87149f10f1ffda9c1df55fae0d68fe643c8be0790eec2f859205ed312cd68b60405160405180910390a4505050505050565b60068181548110611d3257600080fd5b90600052602060002090600202016000915090508060000160009054906101000a900473ffffffffffffffffffffffffffffffffffffffff16908060010154905082565b60025481565b60045481565b611d966754b65c648045c62860c01b612287565b8282611dac675eb82d93aa7b881460c01b612287565b611dc067b77e88c43ab03b0c60c01b612287565b611dd46717e176031f4f9bf060c01b612287565b611de8671f78a0e15cd6f64760c01b612287565b600073ffffffffffffffffffffffffffffffffffffffff16600560008473ffffffffffffffffffffffffffffffffffffffff1673ffffffffffffffffffffffffffffffffffffffff168152602001908152602001600020600083815260200190815260200160002060000160009054906101000a900473ffffffffffffffffffffffffffffffffffffffff1673ffffffffffffffffffffffffffffffffffffffff1603611eca576040517f08c379a0000000000000000000000000000000000000000000000000000000008152600401611ec190613029565b60405180910390fd5b611ede67cfb88b7c04e961ba60c01b612287565b611ef267094b83f3e60bda2660c01b612287565b611f06675ce2d24002e1f43360c01b612287565b611f1a67c4fa4cf2f91ac05860c01b612287565b8484611f30671f234aea9b2a1e7560c01b612287565b611f44678ae083626080a58360c01b612287565b611f5867915837eb0ff55c2460c01b612287565b611f6c673530e241c901018460c01b612287565b3373ffffffffffffffffffffffffffffffffffffffff16600560008473ffffffffffffffffffffffffffffffffffffffff1673ffffffffffffffffffffffffffffffffffffffff168152602001908152602001600020600083815260200190815260200160002060000160009054906101000a900473ffffffffffffffffffffffffffffffffffffffff1673ffffffffffffffffffffffffffffffffffffffff161461204d576040517f08c379a000000000000000000000000000000000000000000000000000000000815260040161204490613095565b60405180910390fd5b612061679ec21fd91cbc369d60c01b612287565b61207567fd18c5e9c232e67660c01b612287565b61208967040ab62fbaf0218a60c01b612287565b61209d6794e986b2be53ec5d60c01b612287565b6120b167c4885a3f6ab3f9ef60c01b612287565b6120c56758ac0ab564ae9d9c60c01b612287565b6000600560008973ffffffffffffffffffffffffffffffffffffffff1673ffffffffffffffffffffffffffffffffffffffff1681526020019081526020016000206000888152602001908152602001600020905061212d67401294d482866c3d60c01b612287565b612141674d01a8f038c9808b60c01b612287565b61215567ea8a1b1fe83819ad60c01b612287565b60008611612198576040517f08c379a000000000000000000000000000000000000000000000000000000000815260040161218f90613101565b60405180910390fd5b6121ac67966fc6e35225f05c60c01b612287565b6121c067207ca5a8722d74b460c01b612287565b8581600101819055506121dd67c35f6db4eee4966360c01b612287565b6121f1673bac5efba7d7873060c01b612287565b868873ffffffffffffffffffffffffffffffffffffffff163373ffffffffffffffffffffffffffffffffffffffff167f0af55bb2d5976cf0b636ba8903d1f3a441f6056ded6bc491dcfad6d2e0827e168960405161224f9190612731565b60405180910390a45050505050505050565b600160009054906101000a900473ffffffffffffffffffffffffffffffffffffffff1681565b50565b6002600054036122c6576040517f3ee5aeb500000000000000000000000000000000000000000000000000000000815260040160405180910390fd5b6002600081905550565b6122e4675c11eb598213d94160c01b612287565b6122f8675da3ddcc20f7d81c60c01b612287565b61230c67dfd9d26611d842a060c01b612287565b60005b60068054905081101561259a576123306761dceab95f22993060c01b612287565b61234467204983cfaba81c8560c01b612287565b8273ffffffffffffffffffffffffffffffffffffffff166006828154811061236f5761236e613121565b5b906000526020600020906002020160000160009054906101000a900473ffffffffffffffffffffffffffffffffffffffff1673ffffffffffffffffffffffffffffffffffffffff161480156123e8575081600682815481106123d4576123d3613121565b5b906000526020600020906002020160010154145b156125795761240167cc9aa75694fba9f860c01b612287565b612415679ff620236cde7dc860c01b612287565b600660016006805490506124299190612c76565b8154811061243a57612439613121565b5b90600052602060002090600202016006828154811061245c5761245b613121565b5b90600052602060002090600202016000820160009054906101000a900473ffffffffffffffffffffffffffffffffffffffff168160000160006101000a81548173ffffffffffffffffffffffffffffffffffffffff021916908373ffffffffffffffffffffffffffffffffffffffff160217905550600182015481600101559050506124f2670f446323ebd5dffe60c01b612287565b61250667e9ce88ef317acf4160c01b612287565b600680548061251857612517613150565b5b6001900381819060005260206000209060020201600080820160006101000a81549073ffffffffffffffffffffffffffffffffffffffff021916905560018201600090555050905561257467d4c3e30282c0854160c01b612287565b61259a565b61258d67c46915b7c78708c060c01b612287565b808060010191505061230f565b505050565b6001600081905550565b600060019050919050565b6040518060400160405280600073ffffffffffffffffffffffffffffffffffffffff168152602001600081525090565b600080fd5b600073ffffffffffffffffffffffffffffffffffffffff82169050919050565b6000612614826125e9565b9050919050565b61262481612609565b811461262f57600080fd5b50565b6000813590506126418161261b565b92915050565b6000819050919050565b61265a81612647565b811461266557600080fd5b50565b60008135905061267781612651565b92915050565b60008060408385031215612694576126936125e4565b5b60006126a285828601612632565b92505060206126b385828601612668565b9150509250929050565b6126c681612609565b82525050565b6126d581612647565b82525050565b60006040820190506126f060008301856126bd565b6126fd60208301846126cc565b9392505050565b60006020828403121561271a576127196125e4565b5b600061272884828501612668565b91505092915050565b600060208201905061274660008301846126cc565b92915050565b600060208284031215612762576127616125e4565b5b600061277084828501612632565b91505092915050565b61278281612609565b82525050565b61279181612647565b82525050565b6040820160008201516127ad6000850182612779565b5060208201516127c06020850182612788565b50505050565b60006040820190506127db6000830184612797565b92915050565b6000806000606084860312156127fa576127f96125e4565b5b600061280886828701612632565b935050602061281986828701612668565b925050604061282a86828701612668565b9150509250925092565b600081519050919050565b600082825260208201905092915050565b6000819050602082019050919050565b6040820160008201516128766000850182612779565b5060208201516128896020850182612788565b50505050565b600061289b8383612860565b60408301905092915050565b6000602082019050919050565b60006128bf82612834565b6128c9818561283f565b93506128d483612850565b8060005b838110156129055781516128ec888261288f565b97506128f7836128a7565b9250506001810190506128d8565b5085935050505092915050565b6000602082019050818103600083015261292c81846128b4565b905092915050565b600060208201905061294960008301846126bd565b92915050565b600082825260208201905092915050565b7f4e6f742061646d696e0000000000000000000000000000000000000000000000600082015250565b600061299660098361294f565b91506129a182612960565b602082019050919050565b600060208201905081810360008301526129c581612989565b9050919050565b7f4d61782066656520697320313025000000000000000000000000000000000000600082015250565b6000612a02600e8361294f565b9150612a0d826129cc565b602082019050919050565b60006020820190508181036000830152612a31816129f5565b9050919050565b6000604082019050612a4d60008301856126cc565b612a5a60208301846126cc565b9392505050565b7f496e76616c696420616464726573730000000000000000000000000000000000600082015250565b6000612a97600f8361294f565b9150612aa282612a61565b602082019050919050565b60006020820190508181036000830152612ac681612a8a565b9050919050565b7f4e6f74206c697374656400000000000000000000000000000000000000000000600082015250565b6000612b03600a8361294f565b9150612b0e82612acd565b602082019050919050565b60006020820190508181036000830152612b3281612af6565b9050919050565b7f496e636f72726563742070726963650000000000000000000000000000000000600082015250565b6000612b6f600f8361294f565b9150612b7a82612b39565b602082019050919050565b60006020820190508181036000830152612b9e81612b62565b9050919050565b7f4e487b7100000000000000000000000000000000000000000000000000000000600052601160045260246000fd5b6000612bdf82612647565b9150612bea83612647565b9250828202612bf881612647565b91508282048414831517612c0f57612c0e612ba5565b5b5092915050565b7f4e487b7100000000000000000000000000000000000000000000000000000000600052601260045260246000fd5b6000612c5082612647565b9150612c5b83612647565b925082612c6b57612c6a612c16565b5b828204905092915050565b6000612c8182612647565b9150612c8c83612647565b9250828203905081811115612ca457612ca3612ba5565b5b92915050565b6000612cb582612647565b9150612cc083612647565b9250828201905080821115612cd857612cd7612ba5565b5b92915050565b6000606082019050612cf360008301866126bd565b612d0060208301856126bd565b612d0d60408301846126cc565b949350505050565b7f5072696365206d7573742062652067726561746572207468616e203000000000600082015250565b6000612d4b601c8361294f565b9150612d5682612d15565b602082019050919050565b60006020820190508181036000830152612d7a81612d3e565b9050919050565b600081519050612d908161261b565b92915050565b600060208284031215612dac57612dab6125e4565b5b6000612dba84828501612d81565b91505092915050565b7f4e6f7420746865206f776e6572206f66204e4654000000000000000000000000600082015250565b6000612df960148361294f565b9150612e0482612dc3565b602082019050919050565b60006020820190508181036000830152612e2881612dec565b9050919050565b6000604082019050612e4460008301856126bd565b612e5160208301846126bd565b9392505050565b60008115159050919050565b612e6d81612e58565b8114612e7857600080fd5b50565b600081519050612e8a81612e64565b92915050565b600060208284031215612ea657612ea56125e4565b5b6000612eb484828501612e7b565b91505092915050565b7f4d61726b6574706c616365206e6f7420617070726f7665640000000000000000600082015250565b6000612ef360188361294f565b9150612efe82612ebd565b602082019050919050565b60006020820190508181036000830152612f2281612ee6565b9050919050565b7f416c7265616479206c6973746564000000000000000000000000000000000000600082015250565b6000612f5f600e8361294f565b9150612f6a82612f29565b602082019050919050565b60006020820190508181036000830152612f8e81612f52565b9050919050565b6000612fa082612647565b91507fffffffffffffffffffffffffffffffffffffffffffffffffffffffffffffffff8203612fd257612fd1612ba5565b5b600182019050919050565b7f4c697374696e6720646f6573206e6f7420657869737400000000000000000000600082015250565b600061301360168361294f565b915061301e82612fdd565b602082019050919050565b6000602082019050818103600083015261304281613006565b9050919050565b7f43616c6c6572206973206e6f742073656c6c6572000000000000000000000000600082015250565b600061307f60148361294f565b915061308a82613049565b602082019050919050565b600060208201905081810360008301526130ae81613072565b9050919050565b7f496e76616c696420707269636500000000000000000000000000000000000000600082015250565b60006130eb600d8361294f565b91506130f6826130b5565b602082019050919050565b6000602082019050818103600083015261311a816130de565b9050919050565b7f4e487b7100000000000000000000000000000000000000000000000000000000600052603260045260246000fd5b7f4e487b7100000000000000000000000000000000000000000000000000000000600052603160045260246000fdfea2646970667358221220fb832e8cc9081d35fd5b3575460731e3e960698934db963b9339c6cfebb3eab864736f6c634300081c0033","opcodes":"PUSH1 0x80 PUSH1 0x40 MSTORE PUSH1 0xFA PUSH1 0x2 SSTORE CALLVALUE DUP1 ISZERO PUSH1 0x14 JUMPI PUSH1 0x0 DUP1 REVERT JUMPDEST POP PUSH1 0x1 PUSH1 0x0 DUP2 SWAP1 SSTORE POP PUSH1 0x35 PUSH8 0x8649941208B2013F PUSH1 0xC0 SHL PUSH1 0x92 PUSH1 0x20 SHL PUSH1 0x20 SHR JUMP JUMPDEST PUSH1 0x4D PUSH8 0x54FFF7B3B0ADF2F4 PUSH1 0xC0 SHL PUSH1 0x92 PUSH1 0x20 SHL PUSH1 0x20 SHR JUMP JUMPDEST CALLER PUSH1 0x1 PUSH1 0x0 PUSH2 0x100 EXP DUP2 SLOAD DUP2 PUSH20 0xFFFFFFFFFFFFFFFFFFFFFFFFFFFFFFFFFFFFFFFF MUL NOT AND SWAP1 DUP4 PUSH20 0xFFFFFFFFFFFFFFFFFFFFFFFFFFFFFFFFFFFFFFFF AND MUL OR SWAP1 SSTORE POP PUSH1 0x95 JUMP JUMPDEST POP JUMP JUMPDEST PUSH2 0x31B5 DUP1 PUSH2 0xA4 PUSH1 0x0 CODECOPY PUSH1 0x0 RETURN INVALID PUSH1 0x80 PUSH1 0x40 MSTORE PUSH1 0x4 CALLDATASIZE LT PUSH2 0xDC JUMPI PUSH1 0x0 CALLDATALOAD PUSH1 0xE0 SHR DUP1 PUSH4 0xAE73CCEC GT PUSH2 0x7F JUMPI DUP1 PUSH4 0xC58BFB66 GT PUSH2 0x59 JUMPI DUP1 PUSH4 0xC58BFB66 EQ PUSH2 0x2B0 JUMPI DUP1 PUSH4 0xC78B616C EQ PUSH2 0x2DB JUMPI DUP1 PUSH4 0xF772ADF1 EQ PUSH2 0x306 JUMPI DUP1 PUSH4 0xF851A440 EQ PUSH2 0x32F JUMPI PUSH2 0xDC JUMP JUMPDEST DUP1 PUSH4 0xAE73CCEC EQ PUSH2 0x21E JUMPI DUP1 PUSH4 0xB2DDEE06 EQ PUSH2 0x249 JUMPI DUP1 PUSH4 0xC1171D61 EQ PUSH2 0x272 JUMPI PUSH2 0xDC JUMP JUMPDEST DUP1 PUSH4 0x72B0D90C GT PUSH2 0xBB JUMPI DUP1 PUSH4 0x72B0D90C EQ PUSH2 0x173 JUMPI DUP1 PUSH4 0x88700D1C EQ PUSH2 0x19C JUMPI DUP1 PUSH4 0xA82BA76F EQ PUSH2 0x1D9 JUMPI DUP1 PUSH4 0xAD05F1B4 EQ PUSH2 0x1F5 JUMPI PUSH2 0xDC JUMP JUMPDEST DUP1 PUSH3 0x7DF30 EQ PUSH2 0xE1 JUMPI DUP1 PUSH4 0x12E8E2C3 EQ PUSH2 0x11F JUMPI DUP1 PUSH4 0x5ADC19C7 EQ PUSH2 0x148 JUMPI JUMPDEST PUSH1 0x0 DUP1 REVERT JUMPDEST CALLVALUE DUP1 ISZERO PUSH2 0xED JUMPI PUSH1 0x0 DUP1 REVERT JUMPDEST POP PUSH2 0x108 PUSH1 0x4 DUP1 CALLDATASIZE SUB DUP2 ADD SWAP1 PUSH2 0x103 SWAP2 SWAP1 PUSH2 0x267D JUMP JUMPDEST PUSH2 0x35A JUMP JUMPDEST PUSH1 0x40 MLOAD PUSH2 0x116 SWAP3 SWAP2 SWAP1 PUSH2 0x26DB JUMP JUMPDEST PUSH1 0x40 MLOAD DUP1 SWAP2 SUB SWAP1 RETURN JUMPDEST CALLVALUE DUP1 ISZERO PUSH2 0x12B JUMPI PUSH1 0x0 DUP1 REVERT JUMPDEST POP PUSH2 0x146 PUSH1 0x4 DUP1 CALLDATASIZE SUB DUP2 ADD SWAP1 PUSH2 0x141 SWAP2 SWAP1 PUSH2 0x2704 JUMP JUMPDEST PUSH2 0x3AB JUMP JUMPDEST STOP JUMPDEST CALLVALUE DUP1 ISZERO PUSH2 0x154 JUMPI PUSH1 0x0 DUP1 REVERT JUMPDEST POP PUSH2 0x15D PUSH2 0x633 JUMP JUMPDEST PUSH1 0x40 MLOAD PUSH2 0x16A SWAP2 SWAP1 PUSH2 0x2731 JUMP JUMPDEST PUSH1 0x40 MLOAD DUP1 SWAP2 SUB SWAP1 RETURN JUMPDEST CALLVALUE DUP1 ISZERO PUSH2 0x17F JUMPI PUSH1 0x0 DUP1 REVERT JUMPDEST POP PUSH2 0x19A PUSH1 0x4 DUP1 CALLDATASIZE SUB DUP2 ADD SWAP1 PUSH2 0x195 SWAP2 SWAP1 PUSH2 0x274C JUMP JUMPDEST PUSH2 0x639 JUMP JUMPDEST STOP JUMPDEST CALLVALUE DUP1 ISZERO PUSH2 0x1A8 JUMPI PUSH1 0x0 DUP1 REVERT JUMPDEST POP PUSH2 0x1C3 PUSH1 0x4 DUP1 CALLDATASIZE SUB DUP2 ADD SWAP1 PUSH2 0x1BE SWAP2 SWAP1 PUSH2 0x267D JUMP JUMPDEST PUSH2 0x8AE JUMP JUMPDEST PUSH1 0x40 MLOAD PUSH2 0x1D0 SWAP2 SWAP1 PUSH2 0x27C6 JUMP JUMPDEST PUSH1 0x40 MLOAD DUP1 SWAP2 SUB SWAP1 RETURN JUMPDEST PUSH2 0x1F3 PUSH1 0x4 DUP1 CALLDATASIZE SUB DUP2 ADD SWAP1 PUSH2 0x1EE SWAP2 SWAP1 PUSH2 0x267D JUMP JUMPDEST PUSH2 0x9B5 JUMP JUMPDEST STOP JUMPDEST CALLVALUE DUP1 ISZERO PUSH2 0x201 JUMPI PUSH1 0x0 DUP1 REVERT JUMPDEST POP PUSH2 0x21C PUSH1 0x4 DUP1 CALLDATASIZE SUB DUP2 ADD SWAP1 PUSH2 0x217 SWAP2 SWAP1 PUSH2 0x27E1 JUMP JUMPDEST PUSH2 0x1001 JUMP JUMPDEST STOP JUMPDEST CALLVALUE DUP1 ISZERO PUSH2 0x22A JUMPI PUSH1 0x0 DUP1 REVERT JUMPDEST POP PUSH2 0x233 PUSH2 0x17B9 JUMP JUMPDEST PUSH1 0x40 MLOAD PUSH2 0x240 SWAP2 SWAP1 PUSH2 0x2912 JUMP JUMPDEST PUSH1 0x40 MLOAD DUP1 SWAP2 SUB SWAP1 RETURN JUMPDEST CALLVALUE DUP1 ISZERO PUSH2 0x255 JUMPI PUSH1 0x0 DUP1 REVERT JUMPDEST POP PUSH2 0x270 PUSH1 0x4 DUP1 CALLDATASIZE SUB DUP2 ADD SWAP1 PUSH2 0x26B SWAP2 SWAP1 PUSH2 0x267D JUMP JUMPDEST PUSH2 0x18B4 JUMP JUMPDEST STOP JUMPDEST CALLVALUE DUP1 ISZERO PUSH2 0x27E JUMPI PUSH1 0x0 DUP1 REVERT JUMPDEST POP PUSH2 0x299 PUSH1 0x4 DUP1 CALLDATASIZE SUB DUP2 ADD SWAP1 PUSH2 0x294 SWAP2 SWAP1 PUSH2 0x2704 JUMP JUMPDEST PUSH2 0x1D22 JUMP JUMPDEST PUSH1 0x40 MLOAD PUSH2 0x2A7 SWAP3 SWAP2 SWAP1 PUSH2 0x26DB JUMP JUMPDEST PUSH1 0x40 MLOAD DUP1 SWAP2 SUB SWAP1 RETURN JUMPDEST CALLVALUE DUP1 ISZERO PUSH2 0x2BC JUMPI PUSH1 0x0 DUP1 REVERT JUMPDEST POP PUSH2 0x2C5 PUSH2 0x1D76 JUMP JUMPDEST PUSH1 0x40 MLOAD PUSH2 0x2D2 SWAP2 SWAP1 PUSH2 0x2731 JUMP JUMPDEST PUSH1 0x40 MLOAD DUP1 SWAP2 SUB SWAP1 RETURN JUMPDEST CALLVALUE DUP1 ISZERO PUSH2 0x2E7 JUMPI PUSH1 0x0 DUP1 REVERT JUMPDEST POP PUSH2 0x2F0 PUSH2 0x1D7C JUMP JUMPDEST PUSH1 0x40 MLOAD PUSH2 0x2FD SWAP2 SWAP1 PUSH2 0x2731 JUMP JUMPDEST PUSH1 0x40 MLOAD DUP1 SWAP2 SUB SWAP1 RETURN JUMPDEST CALLVALUE DUP1 ISZERO PUSH2 0x312 JUMPI PUSH1 0x0 DUP1 REVERT JUMPDEST POP PUSH2 0x32D PUSH1 0x4 DUP1 CALLDATASIZE SUB DUP2 ADD SWAP1 PUSH2 0x328 SWAP2 SWAP1 PUSH2 0x27E1 JUMP JUMPDEST PUSH2 0x1D82 JUMP JUMPDEST STOP JUMPDEST CALLVALUE DUP1 ISZERO PUSH2 0x33B JUMPI PUSH1 0x0 DUP1 REVERT JUMPDEST POP PUSH2 0x344 PUSH2 0x2261 JUMP JUMPDEST PUSH1 0x40 MLOAD PUSH2 0x351 SWAP2 SWAP1 PUSH2 0x2934 JUMP JUMPDEST PUSH1 0x40 MLOAD DUP1 SWAP2 SUB SWAP1 RETURN JUMPDEST PUSH1 0x5 PUSH1 0x20 MSTORE DUP2 PUSH1 0x0 MSTORE PUSH1 0x40 PUSH1 0x0 KECCAK256 PUSH1 0x20 MSTORE DUP1 PUSH1 0x0 MSTORE PUSH1 0x40 PUSH1 0x0 KECCAK256 PUSH1 0x0 SWAP2 POP SWAP2 POP POP DUP1 PUSH1 0x0 ADD PUSH1 0x0 SWAP1 SLOAD SWAP1 PUSH2 0x100 EXP SWAP1 DIV PUSH20 0xFFFFFFFFFFFFFFFFFFFFFFFFFFFFFFFFFFFFFFFF AND SWAP1 DUP1 PUSH1 0x1 ADD SLOAD SWAP1 POP DUP3 JUMP JUMPDEST PUSH2 0x3BF PUSH8 0x6ED9E410754807B2 PUSH1 0xC0 SHL PUSH2 0x2287 JUMP JUMPDEST PUSH2 0x3D3 PUSH8 0x9CBDE3391A5BD90C PUSH1 0xC0 SHL PUSH2 0x2287 JUMP JUMPDEST PUSH2 0x3E7 PUSH8 0xE7BF5896AFADE61D PUSH1 0xC0 SHL PUSH2 0x2287 JUMP JUMPDEST PUSH2 0x3FB PUSH8 0x544D2ED7C0AC3F9A PUSH1 0xC0 SHL PUSH2 0x2287 JUMP JUMPDEST PUSH2 0x40F PUSH8 0x18CEC53E0DDCB55B PUSH1 0xC0 SHL PUSH2 0x2287 JUMP JUMPDEST PUSH1 0x1 PUSH1 0x0 SWAP1 SLOAD SWAP1 PUSH2 0x100 EXP SWAP1 DIV PUSH20 0xFFFFFFFFFFFFFFFFFFFFFFFFFFFFFFFFFFFFFFFF AND PUSH20 0xFFFFFFFFFFFFFFFFFFFFFFFFFFFFFFFFFFFFFFFF AND CALLER PUSH20 0xFFFFFFFFFFFFFFFFFFFFFFFFFFFFFFFFFFFFFFFF AND EQ PUSH2 0x49F JUMPI PUSH1 0x40 MLOAD PUSH32 0x8C379A000000000000000000000000000000000000000000000000000000000 DUP2 MSTORE PUSH1 0x4 ADD PUSH2 0x496 SWAP1 PUSH2 0x29AC JUMP JUMPDEST PUSH1 0x40 MLOAD DUP1 SWAP2 SUB SWAP1 REVERT JUMPDEST PUSH2 0x4B3 PUSH8 0x633CE72172675323 PUSH1 0xC0 SHL PUSH2 0x2287 JUMP JUMPDEST PUSH2 0x4C7 PUSH8 0x9CC5618C91D8D357 PUSH1 0xC0 SHL PUSH2 0x2287 JUMP JUMPDEST PUSH2 0x4DB PUSH8 0xFBC86848B43F69F3 PUSH1 0xC0 SHL PUSH2 0x2287 JUMP JUMPDEST PUSH2 0x4EF PUSH8 0x4EB948269F0D00C3 PUSH1 0xC0 SHL PUSH2 0x2287 JUMP JUMPDEST PUSH2 0x503 PUSH8 0xDD1530604AAE8226 PUSH1 0xC0 SHL PUSH2 0x2287 JUMP JUMPDEST PUSH2 0x517 PUSH8 0x892BA88F3A7D2BE4 PUSH1 0xC0 SHL PUSH2 0x2287 JUMP JUMPDEST PUSH2 0x52B PUSH8 0x1C4E41E50D907E12 PUSH1 0xC0 SHL PUSH2 0x2287 JUMP JUMPDEST PUSH2 0x3E8 DUP2 GT ISZERO PUSH2 0x570 JUMPI PUSH1 0x40 MLOAD PUSH32 0x8C379A000000000000000000000000000000000000000000000000000000000 DUP2 MSTORE PUSH1 0x4 ADD PUSH2 0x567 SWAP1 PUSH2 0x2A18 JUMP JUMPDEST PUSH1 0x40 MLOAD DUP1 SWAP2 SUB SWAP1 REVERT JUMPDEST PUSH2 0x584 PUSH8 0x9F41B454BCE8A868 PUSH1 0xC0 SHL PUSH2 0x2287 JUMP JUMPDEST PUSH2 0x598 PUSH8 0x92FE8935DE02CE12 PUSH1 0xC0 SHL PUSH2 0x2287 JUMP JUMPDEST PUSH2 0x5AC PUSH8 0x862A9FC41D8E8A08 PUSH1 0xC0 SHL PUSH2 0x2287 JUMP JUMPDEST PUSH1 0x0 PUSH1 0x2 SLOAD SWAP1 POP PUSH2 0x5C7 PUSH8 0x758DDDA03BFA7C74 PUSH1 0xC0 SHL PUSH2 0x2287 JUMP JUMPDEST DUP2 PUSH1 0x2 DUP2 SWAP1 SSTORE POP PUSH2 0x5E2 PUSH8 0xAA96267E08190722 PUSH1 0xC0 SHL PUSH2 0x2287 JUMP JUMPDEST PUSH2 0x5F6 PUSH8 0x9C9E8C9BB318C40D PUSH1 0xC0 SHL PUSH2 0x2287 JUMP JUMPDEST PUSH32 0xD347E206F25A89B917FC9482F1A2D294D749BAA4DC9BDE7FB495EE11FE491643 DUP2 DUP4 PUSH1 0x40 MLOAD PUSH2 0x627 SWAP3 SWAP2 SWAP1 PUSH2 0x2A38 JUMP JUMPDEST PUSH1 0x40 MLOAD DUP1 SWAP2 SUB SWAP1 LOG1 POP POP JUMP JUMPDEST PUSH1 0x3 SLOAD DUP2 JUMP JUMPDEST PUSH2 0x64D PUSH8 0xA5B2ED9EB16386CA PUSH1 0xC0 SHL PUSH2 0x2287 JUMP JUMPDEST PUSH2 0x661 PUSH8 0x9CBDE3391A5BD90C PUSH1 0xC0 SHL PUSH2 0x2287 JUMP JUMPDEST PUSH2 0x675 PUSH8 0xE7BF5896AFADE61D PUSH1 0xC0 SHL PUSH2 0x2287 JUMP JUMPDEST PUSH2 0x689 PUSH8 0x544D2ED7C0AC3F9A PUSH1 0xC0 SHL PUSH2 0x2287 JUMP JUMPDEST PUSH2 0x69D PUSH8 0x18CEC53E0DDCB55B PUSH1 0xC0 SHL PUSH2 0x2287 JUMP JUMPDEST PUSH1 0x1 PUSH1 0x0 SWAP1 SLOAD SWAP1 PUSH2 0x100 EXP SWAP1 DIV PUSH20 0xFFFFFFFFFFFFFFFFFFFFFFFFFFFFFFFFFFFFFFFF AND PUSH20 0xFFFFFFFFFFFFFFFFFFFFFFFFFFFFFFFFFFFFFFFF AND CALLER PUSH20 0xFFFFFFFFFFFFFFFFFFFFFFFFFFFFFFFFFFFFFFFF AND EQ PUSH2 0x72D JUMPI PUSH1 0x40 MLOAD PUSH32 0x8C379A000000000000000000000000000000000000000000000000000000000 DUP2 MSTORE PUSH1 0x4 ADD PUSH2 0x724 SWAP1 PUSH2 0x29AC JUMP JUMPDEST PUSH1 0x40 MLOAD DUP1 SWAP2 SUB SWAP1 REVERT JUMPDEST PUSH2 0x741 PUSH8 0x633CE72172675323 PUSH1 0xC0 SHL PUSH2 0x2287 JUMP JUMPDEST PUSH2 0x755 PUSH8 0x9CC5618C91D8D357 PUSH1 0xC0 SHL PUSH2 0x2287 JUMP JUMPDEST PUSH2 0x769 PUSH8 0x2CBCB7AB6D5C7F63 PUSH1 0xC0 SHL PUSH2 0x2287 JUMP JUMPDEST PUSH2 0x77D PUSH8 0xF4857FA3B82C21D8 PUSH1 0xC0 SHL PUSH2 0x2287 JUMP JUMPDEST PUSH2 0x791 PUSH8 0xE9E8EB1F4AA3C995 PUSH1 0xC0 SHL PUSH2 0x2287 JUMP JUMPDEST PUSH2 0x7A5 PUSH8 0xEA639A4BA3949E62 PUSH1 0xC0 SHL PUSH2 0x2287 JUMP JUMPDEST PUSH2 0x7B9 PUSH8 0x440FE6A63C4FE84E PUSH1 0xC0 SHL PUSH2 0x2287 JUMP JUMPDEST PUSH1 0x0 PUSH20 0xFFFFFFFFFFFFFFFFFFFFFFFFFFFFFFFFFFFFFFFF AND DUP2 PUSH20 0xFFFFFFFFFFFFFFFFFFFFFFFFFFFFFFFFFFFFFFFF AND SUB PUSH2 0x828 JUMPI PUSH1 0x40 MLOAD PUSH32 0x8C379A000000000000000000000000000000000000000000000000000000000 DUP2 MSTORE PUSH1 0x4 ADD PUSH2 0x81F SWAP1 PUSH2 0x2AAD JUMP JUMPDEST PUSH1 0x40 MLOAD DUP1 SWAP2 SUB SWAP1 REVERT JUMPDEST PUSH2 0x83C PUSH8 0xFB0500AD568D0166 PUSH1 0xC0 SHL PUSH2 0x2287 JUMP JUMPDEST PUSH2 0x850 PUSH8 0x4CA30D909C960224 PUSH1 0xC0 SHL PUSH2 0x2287 JUMP JUMPDEST PUSH2 0x864 PUSH8 0xC653D308A546B99 PUSH1 0xC0 SHL PUSH2 0x2287 JUMP JUMPDEST DUP1 PUSH20 0xFFFFFFFFFFFFFFFFFFFFFFFFFFFFFFFFFFFFFFFF AND PUSH2 0x8FC SELFBALANCE SWAP1 DUP2 ISZERO MUL SWAP1 PUSH1 0x40 MLOAD PUSH1 0x0 PUSH1 0x40 MLOAD DUP1 DUP4 SUB DUP2 DUP6 DUP9 DUP9 CALL SWAP4 POP POP POP POP ISZERO DUP1 ISZERO PUSH2 0x8AA JUMPI RETURNDATASIZE PUSH1 0x0 DUP1 RETURNDATACOPY RETURNDATASIZE PUSH1 0x0 REVERT JUMPDEST POP POP JUMP JUMPDEST PUSH2 0x8B6 PUSH2 0x25B4 JUMP JUMPDEST PUSH2 0x8CA PUSH8 0xE7B4FA1257D532E0 PUSH1 0xC0 SHL PUSH2 0x2287 JUMP JUMPDEST PUSH2 0x8DE PUSH8 0x43903863999B9ECD PUSH1 0xC0 SHL PUSH2 0x2287 JUMP JUMPDEST PUSH2 0x8F2 PUSH8 0xBDD67E3638B770EA PUSH1 0xC0 SHL PUSH2 0x2287 JUMP JUMPDEST PUSH1 0x5 PUSH1 0x0 DUP5 PUSH20 0xFFFFFFFFFFFFFFFFFFFFFFFFFFFFFFFFFFFFFFFF AND PUSH20 0xFFFFFFFFFFFFFFFFFFFFFFFFFFFFFFFFFFFFFFFF AND DUP2 MSTORE PUSH1 0x20 ADD SWAP1 DUP2 MSTORE PUSH1 0x20 ADD PUSH1 0x0 KECCAK256 PUSH1 0x0 DUP4 DUP2 MSTORE PUSH1 0x20 ADD SWAP1 DUP2 MSTORE PUSH1 0x20 ADD PUSH1 0x0 KECCAK256 PUSH1 0x40 MLOAD DUP1 PUSH1 0x40 ADD PUSH1 0x40 MSTORE SWAP1 DUP2 PUSH1 0x0 DUP3 ADD PUSH1 0x0 SWAP1 SLOAD SWAP1 PUSH2 0x100 EXP SWAP1 DIV PUSH20 0xFFFFFFFFFFFFFFFFFFFFFFFFFFFFFFFFFFFFFFFF AND PUSH20 0xFFFFFFFFFFFFFFFFFFFFFFFFFFFFFFFFFFFFFFFF AND PUSH20 0xFFFFFFFFFFFFFFFFFFFFFFFFFFFFFFFFFFFFFFFF AND DUP2 MSTORE PUSH1 0x20 ADD PUSH1 0x1 DUP3 ADD SLOAD DUP2 MSTORE POP POP SWAP1 POP SWAP3 SWAP2 POP POP JUMP JUMPDEST PUSH2 0x9C9 PUSH8 0xACA705BF2D28CD8 PUSH1 0xC0 SHL PUSH2 0x2287 JUMP JUMPDEST PUSH2 0x9D1 PUSH2 0x228A JUMP JUMPDEST PUSH2 0x9E5 PUSH8 0x54FF7C91583EE09 PUSH1 0xC0 SHL PUSH2 0x2287 JUMP JUMPDEST PUSH2 0x9F9 PUSH8 0xF35983178433E755 PUSH1 0xC0 SHL PUSH2 0x2287 JUMP JUMPDEST PUSH2 0xA0D PUSH8 0x7FCBF0C69CB797CF PUSH1 0xC0 SHL PUSH2 0x2287 JUMP JUMPDEST PUSH2 0xA21 PUSH8 0x2A717405F9140790 PUSH1 0xC0 SHL PUSH2 0x2287 JUMP JUMPDEST PUSH1 0x0 PUSH1 0x5 PUSH1 0x0 DUP5 PUSH20 0xFFFFFFFFFFFFFFFFFFFFFFFFFFFFFFFFFFFFFFFF AND PUSH20 0xFFFFFFFFFFFFFFFFFFFFFFFFFFFFFFFFFFFFFFFF AND DUP2 MSTORE PUSH1 0x20 ADD SWAP1 DUP2 MSTORE PUSH1 0x20 ADD PUSH1 0x0 KECCAK256 PUSH1 0x0 DUP4 DUP2 MSTORE PUSH1 0x20 ADD SWAP1 DUP2 MSTORE PUSH1 0x20 ADD PUSH1 0x0 KECCAK256 PUSH1 0x40 MLOAD DUP1 PUSH1 0x40 ADD PUSH1 0x40 MSTORE SWAP1 DUP2 PUSH1 0x0 DUP3 ADD PUSH1 0x0 SWAP1 SLOAD SWAP1 PUSH2 0x100 EXP SWAP1 DIV PUSH20 0xFFFFFFFFFFFFFFFFFFFFFFFFFFFFFFFFFFFFFFFF AND PUSH20 0xFFFFFFFFFFFFFFFFFFFFFFFFFFFFFFFFFFFFFFFF AND PUSH20 0xFFFFFFFFFFFFFFFFFFFFFFFFFFFFFFFFFFFFFFFF AND DUP2 MSTORE PUSH1 0x20 ADD PUSH1 0x1 DUP3 ADD SLOAD DUP2 MSTORE POP POP SWAP1 POP PUSH2 0xAF4 PUSH8 0x61F448CE056CAF4A PUSH1 0xC0 SHL PUSH2 0x2287 JUMP JUMPDEST PUSH2 0xB08 PUSH8 0xB261D762CC3D78E4 PUSH1 0xC0 SHL PUSH2 0x2287 JUMP JUMPDEST PUSH2 0xB1C PUSH8 0xBC8405122CFFE128 PUSH1 0xC0 SHL PUSH2 0x2287 JUMP JUMPDEST PUSH1 0x0 DUP2 PUSH1 0x20 ADD MLOAD GT PUSH2 0xB63 JUMPI PUSH1 0x40 MLOAD PUSH32 0x8C379A000000000000000000000000000000000000000000000000000000000 DUP2 MSTORE PUSH1 0x4 ADD PUSH2 0xB5A SWAP1 PUSH2 0x2B19 JUMP JUMPDEST PUSH1 0x40 MLOAD DUP1 SWAP2 SUB SWAP1 REVERT JUMPDEST PUSH2 0xB77 PUSH8 0x97B1499F6C2A393 PUSH1 0xC0 SHL PUSH2 0x2287 JUMP JUMPDEST PUSH2 0xB8B PUSH8 0xE2D4F37743AFE556 PUSH1 0xC0 SHL PUSH2 0x2287 JUMP JUMPDEST PUSH2 0xB9F PUSH8 0xB8F9C4B3C3335C80 PUSH1 0xC0 SHL PUSH2 0x2287 JUMP JUMPDEST PUSH2 0xBB3 PUSH8 0x6C19E01A443D2547 PUSH1 0xC0 SHL PUSH2 0x2287 JUMP JUMPDEST DUP1 PUSH1 0x20 ADD MLOAD CALLVALUE EQ PUSH2 0xBF9 JUMPI PUSH1 0x40 MLOAD PUSH32 0x8C379A000000000000000000000000000000000000000000000000000000000 DUP2 MSTORE PUSH1 0x4 ADD PUSH2 0xBF0 SWAP1 PUSH2 0x2B85 JUMP JUMPDEST PUSH1 0x40 MLOAD DUP1 SWAP2 SUB SWAP1 REVERT JUMPDEST PUSH2 0xC0D PUSH8 0x49BC69E97EFF44C4 PUSH1 0xC0 SHL PUSH2 0x2287 JUMP JUMPDEST PUSH2 0xC21 PUSH8 0xE1A54E534338466 PUSH1 0xC0 SHL PUSH2 0x2287 JUMP JUMPDEST PUSH2 0xC35 PUSH8 0x8BA4C0515BF1FC5F PUSH1 0xC0 SHL PUSH2 0x2287 JUMP JUMPDEST PUSH1 0x0 PUSH2 0x2710 PUSH1 0x2 SLOAD CALLVALUE PUSH2 0xC48 SWAP2 SWAP1 PUSH2 0x2BD4 JUMP JUMPDEST PUSH2 0xC52 SWAP2 SWAP1 PUSH2 0x2C45 JUMP JUMPDEST SWAP1 POP PUSH2 0xC68 PUSH8 0xAF8F8BA559A18A1C PUSH1 0xC0 SHL PUSH2 0x2287 JUMP JUMPDEST PUSH2 0xC7C PUSH8 0xECEB5AB96A35D94 PUSH1 0xC0 SHL PUSH2 0x2287 JUMP JUMPDEST PUSH1 0x0 DUP2 CALLVALUE PUSH2 0xC8A SWAP2 SWAP1 PUSH2 0x2C76 JUMP JUMPDEST SWAP1 POP PUSH2 0xCA0 PUSH8 0xDDDDC0CB1FC98BF9 PUSH1 0xC0 SHL PUSH2 0x2287 JUMP JUMPDEST CALLVALUE PUSH1 0x3 PUSH1 0x0 DUP3 DUP3 SLOAD PUSH2 0xCB2 SWAP2 SWAP1 PUSH2 0x2CAA JUMP JUMPDEST SWAP3 POP POP DUP2 SWAP1 SSTORE POP PUSH2 0xCCD PUSH8 0xE3A25C65BA7CB2A8 PUSH1 0xC0 SHL PUSH2 0x2287 JUMP JUMPDEST PUSH2 0xCE1 PUSH8 0xC4AC5A986C35C146 PUSH1 0xC0 SHL PUSH2 0x2287 JUMP JUMPDEST PUSH1 0x0 DUP4 PUSH1 0x0 ADD MLOAD SWAP1 POP PUSH2 0xCFE PUSH8 0xF16C0516FA1F631B PUSH1 0xC0 SHL PUSH2 0x2287 JUMP JUMPDEST PUSH2 0xD12 PUSH8 0x1DCE569FA91CD9E0 PUSH1 0xC0 SHL PUSH2 0x2287 JUMP JUMPDEST PUSH1 0x0 DUP5 PUSH1 0x20 ADD MLOAD SWAP1 POP PUSH2 0xD2F PUSH8 0xBE05599B4D5BE232 PUSH1 0xC0 SHL PUSH2 0x2287 JUMP JUMPDEST PUSH1 0x5 PUSH1 0x0 DUP9 PUSH20 0xFFFFFFFFFFFFFFFFFFFFFFFFFFFFFFFFFFFFFFFF AND PUSH20 0xFFFFFFFFFFFFFFFFFFFFFFFFFFFFFFFFFFFFFFFF AND DUP2 MSTORE PUSH1 0x20 ADD SWAP1 DUP2 MSTORE PUSH1 0x20 ADD PUSH1 0x0 KECCAK256 PUSH1 0x0 DUP8 DUP2 MSTORE PUSH1 0x20 ADD SWAP1 DUP2 MSTORE PUSH1 0x20 ADD PUSH1 0x0 KECCAK256 PUSH1 0x0 DUP1 DUP3 ADD PUSH1 0x0 PUSH2 0x100 EXP DUP2 SLOAD SWAP1 PUSH20 0xFFFFFFFFFFFFFFFFFFFFFFFFFFFFFFFFFFFFFFFF MUL NOT AND SWAP1 SSTORE PUSH1 0x1 DUP3 ADD PUSH1 0x0 SWAP1 SSTORE POP POP PUSH2 0xDC5 PUSH8 0xCD118A711ADA8C35 PUSH1 0xC0 SHL PUSH2 0x2287 JUMP JUMPDEST PUSH2 0xDD9 PUSH8 0x7F983F11A747E998 PUSH1 0xC0 SHL PUSH2 0x2287 JUMP JUMPDEST PUSH2 0xDE3 DUP8 DUP8 PUSH2 0x22D0 JUMP JUMPDEST PUSH2 0xDF7 PUSH8 0xFF201B74FA994ED1 PUSH1 0xC0 SHL PUSH2 0x2287 JUMP JUMPDEST PUSH2 0xE0B PUSH8 0xF591810A74BFF0D4 PUSH1 0xC0 SHL PUSH2 0x2287 JUMP JUMPDEST DUP2 PUSH20 0xFFFFFFFFFFFFFFFFFFFFFFFFFFFFFFFFFFFFFFFF AND PUSH2 0x8FC DUP5 SWAP1 DUP2 ISZERO MUL SWAP1 PUSH1 0x40 MLOAD PUSH1 0x0 PUSH1 0x40 MLOAD DUP1 DUP4 SUB DUP2 DUP6 DUP9 DUP9 CALL SWAP4 POP POP POP POP ISZERO DUP1 ISZERO PUSH2 0xE51 JUMPI RETURNDATASIZE PUSH1 0x0 DUP1 RETURNDATACOPY RETURNDATASIZE PUSH1 0x0 REVERT JUMPDEST POP PUSH2 0xE66 PUSH8 0x1FD5EF8CEDBF4D44 PUSH1 0xC0 SHL PUSH2 0x2287 JUMP JUMPDEST PUSH2 0xE7A PUSH8 0x5ADFA5BC473508E3 PUSH1 0xC0 SHL PUSH2 0x2287 JUMP JUMPDEST DUP7 PUSH20 0xFFFFFFFFFFFFFFFFFFFFFFFFFFFFFFFFFFFFFFFF AND PUSH4 0x42842E0E DUP4 CALLER DUP10 PUSH1 0x40 MLOAD DUP5 PUSH4 0xFFFFFFFF AND PUSH1 0xE0 SHL DUP2 MSTORE PUSH1 0x4 ADD PUSH2 0xEB7 SWAP4 SWAP3 SWAP2 SWAP1 PUSH2 0x2CDE JUMP JUMPDEST PUSH1 0x0 PUSH1 0x40 MLOAD DUP1 DUP4 SUB DUP2 PUSH1 0x0 DUP8 DUP1 EXTCODESIZE ISZERO DUP1 ISZERO PUSH2 0xED1 JUMPI PUSH1 0x0 DUP1 REVERT JUMPDEST POP GAS CALL ISZERO DUP1 ISZERO PUSH2 0xEE5 JUMPI RETURNDATASIZE PUSH1 0x0 DUP1 RETURNDATACOPY RETURNDATASIZE PUSH1 0x0 REVERT JUMPDEST POP POP POP POP PUSH2 0xEFD PUSH8 0xEC136FEB73E19BEF PUSH1 0xC0 SHL PUSH2 0x2287 JUMP JUMPDEST PUSH2 0xF11 PUSH8 0xA44A5B975DCFED08 PUSH1 0xC0 SHL PUSH2 0x2287 JUMP JUMPDEST PUSH32 0xB658A1C3E5E5F1592DA099EE46B4F25A33531BDD8C470D0C5415BAC1146E9FE5 PUSH1 0x3 SLOAD PUSH1 0x40 MLOAD PUSH2 0xF42 SWAP2 SWAP1 PUSH2 0x2731 JUMP JUMPDEST PUSH1 0x40 MLOAD DUP1 SWAP2 SUB SWAP1 LOG1 PUSH2 0xF5E PUSH8 0xB4A962B8B7667EBE PUSH1 0xC0 SHL PUSH2 0x2287 JUMP JUMPDEST PUSH2 0xF72 PUSH8 0x18FFCD5EE68C4519 PUSH1 0xC0 SHL PUSH2 0x2287 JUMP JUMPDEST DUP7 PUSH20 0xFFFFFFFFFFFFFFFFFFFFFFFFFFFFFFFFFFFFFFFF AND CALLER PUSH20 0xFFFFFFFFFFFFFFFFFFFFFFFFFFFFFFFFFFFFFFFF AND DUP4 PUSH20 0xFFFFFFFFFFFFFFFFFFFFFFFFFFFFFFFFFFFFFFFF AND PUSH32 0x1B81EA9818518FFFA07EE623CFD9CE8AF1900F3E0C918F2CA4FCFC9745CDC165 DUP10 DUP6 PUSH1 0x40 MLOAD PUSH2 0xFE8 SWAP3 SWAP2 SWAP1 PUSH2 0x2A38 JUMP JUMPDEST PUSH1 0x40 MLOAD DUP1 SWAP2 SUB SWAP1 LOG4 POP POP POP POP POP PUSH2 0xFFD PUSH2 0x259F JUMP JUMPDEST POP POP JUMP JUMPDEST PUSH2 0x1015 PUSH8 0x3F49C38103E2E43A PUSH1 0xC0 SHL PUSH2 0x2287 JUMP JUMPDEST PUSH2 0x1029 PUSH8 0xF7C06962478940E4 PUSH1 0xC0 SHL PUSH2 0x2287 JUMP JUMPDEST PUSH2 0x103D PUSH8 0x2C5EC41EF4DACAE7 PUSH1 0xC0 SHL PUSH2 0x2287 JUMP JUMPDEST PUSH2 0x1051 PUSH8 0x42BF2E5056B24EBB PUSH1 0xC0 SHL PUSH2 0x2287 JUMP JUMPDEST PUSH1 0x0 DUP2 GT PUSH2 0x1094 JUMPI PUSH1 0x40 MLOAD PUSH32 0x8C379A000000000000000000000000000000000000000000000000000000000 DUP2 MSTORE PUSH1 0x4 ADD PUSH2 0x108B SWAP1 PUSH2 0x2D61 JUMP JUMPDEST PUSH1 0x40 MLOAD DUP1 SWAP2 SUB SWAP1 REVERT JUMPDEST PUSH2 0x10A8 PUSH8 0x93137D317E0A2C32 PUSH1 0xC0 SHL PUSH2 0x2287 JUMP JUMPDEST PUSH2 0x10BC PUSH8 0xCA0411AF55701B0E PUSH1 0xC0 SHL PUSH2 0x2287 JUMP JUMPDEST PUSH2 0x10D0 PUSH8 0x85FA8B3E5CADA37D PUSH1 0xC0 SHL PUSH2 0x2287 JUMP JUMPDEST PUSH1 0x0 DUP4 SWAP1 POP PUSH2 0x10E9 PUSH8 0x33A00DCB12A1F384 PUSH1 0xC0 SHL PUSH2 0x2287 JUMP JUMPDEST PUSH2 0x10FD PUSH8 0xB751E6DE986EA8AC PUSH1 0xC0 SHL PUSH2 0x2287 JUMP JUMPDEST PUSH2 0x1111 PUSH8 0xEA35BB2470F80406 PUSH1 0xC0 SHL PUSH2 0x2287 JUMP JUMPDEST CALLER PUSH20 0xFFFFFFFFFFFFFFFFFFFFFFFFFFFFFFFFFFFFFFFF AND DUP2 PUSH20 0xFFFFFFFFFFFFFFFFFFFFFFFFFFFFFFFFFFFFFFFF AND PUSH4 0x6352211E DUP6 PUSH1 0x40 MLOAD DUP3 PUSH4 0xFFFFFFFF AND PUSH1 0xE0 SHL DUP2 MSTORE PUSH1 0x4 ADD PUSH2 0x1161 SWAP2 SWAP1 PUSH2 0x2731 JUMP JUMPDEST PUSH1 0x20 PUSH1 0x40 MLOAD DUP1 DUP4 SUB DUP2 DUP7 GAS STATICCALL ISZERO DUP1 ISZERO PUSH2 0x117E JUMPI RETURNDATASIZE PUSH1 0x0 DUP1 RETURNDATACOPY RETURNDATASIZE PUSH1 0x0 REVERT JUMPDEST POP POP POP POP PUSH1 0x40 MLOAD RETURNDATASIZE PUSH1 0x1F NOT PUSH1 0x1F DUP3 ADD AND DUP3 ADD DUP1 PUSH1 0x40 MSTORE POP DUP2 ADD SWAP1 PUSH2 0x11A2 SWAP2 SWAP1 PUSH2 0x2D96 JUMP JUMPDEST PUSH20 0xFFFFFFFFFFFFFFFFFFFFFFFFFFFFFFFFFFFFFFFF AND EQ PUSH2 0x11F8 JUMPI PUSH1 0x40 MLOAD PUSH32 0x8C379A000000000000000000000000000000000000000000000000000000000 DUP2 MSTORE PUSH1 0x4 ADD PUSH2 0x11EF SWAP1 PUSH2 0x2E0F JUMP JUMPDEST PUSH1 0x40 MLOAD DUP1 SWAP2 SUB SWAP1 REVERT JUMPDEST PUSH2 0x120C PUSH8 0xD39B5B3C582F273 PUSH1 0xC0 SHL PUSH2 0x2287 JUMP JUMPDEST PUSH2 0x1220 PUSH8 0x58E8CE9F1CB70940 PUSH1 0xC0 SHL PUSH2 0x2287 JUMP JUMPDEST PUSH2 0x1234 PUSH8 0x1B5349EC71FCD77B PUSH1 0xC0 SHL PUSH2 0x2287 JUMP JUMPDEST PUSH2 0x1248 PUSH8 0x18B1322D3376DE7B PUSH1 0xC0 SHL PUSH2 0x2287 JUMP JUMPDEST ADDRESS PUSH20 0xFFFFFFFFFFFFFFFFFFFFFFFFFFFFFFFFFFFFFFFF AND DUP2 PUSH20 0xFFFFFFFFFFFFFFFFFFFFFFFFFFFFFFFFFFFFFFFF AND PUSH4 0x81812FC DUP6 PUSH1 0x40 MLOAD DUP3 PUSH4 0xFFFFFFFF AND PUSH1 0xE0 SHL DUP2 MSTORE PUSH1 0x4 ADD PUSH2 0x1298 SWAP2 SWAP1 PUSH2 0x2731 JUMP JUMPDEST PUSH1 0x20 PUSH1 0x40 MLOAD DUP1 DUP4 SUB DUP2 DUP7 GAS STATICCALL ISZERO DUP1 ISZERO PUSH2 0x12B5 JUMPI RETURNDATASIZE PUSH1 0x0 DUP1 RETURNDATACOPY RETURNDATASIZE PUSH1 0x0 REVERT JUMPDEST POP POP POP POP PUSH1 0x40 MLOAD RETURNDATASIZE PUSH1 0x1F NOT PUSH1 0x1F DUP3 ADD AND DUP3 ADD DUP1 PUSH1 0x40 MSTORE POP DUP2 ADD SWAP1 PUSH2 0x12D9 SWAP2 SWAP1 PUSH2 0x2D96 JUMP JUMPDEST PUSH20 0xFFFFFFFFFFFFFFFFFFFFFFFFFFFFFFFFFFFFFFFF AND EQ DUP1 ISZERO PUSH2 0x130C JUMPI POP PUSH2 0x130B PUSH8 0x8AD04EB568219FB4 PUSH1 0xC0 SHL PUSH2 0x25A9 JUMP JUMPDEST JUMPDEST DUP1 PUSH2 0x13AB JUMPI POP DUP1 PUSH20 0xFFFFFFFFFFFFFFFFFFFFFFFFFFFFFFFFFFFFFFFF AND PUSH4 0xE985E9C5 CALLER ADDRESS PUSH1 0x40 MLOAD DUP4 PUSH4 0xFFFFFFFF AND PUSH1 0xE0 SHL DUP2 MSTORE PUSH1 0x4 ADD PUSH2 0x134D SWAP3 SWAP2 SWAP1 PUSH2 0x2E2F JUMP JUMPDEST PUSH1 0x20 PUSH1 0x40 MLOAD DUP1 DUP4 SUB DUP2 DUP7 GAS STATICCALL ISZERO DUP1 ISZERO PUSH2 0x136A JUMPI RETURNDATASIZE PUSH1 0x0 DUP1 RETURNDATACOPY RETURNDATASIZE PUSH1 0x0 REVERT JUMPDEST POP POP POP POP PUSH1 0x40 MLOAD RETURNDATASIZE PUSH1 0x1F NOT PUSH1 0x1F DUP3 ADD AND DUP3 ADD DUP1 PUSH1 0x40 MSTORE POP DUP2 ADD SWAP1 PUSH2 0x138E SWAP2 SWAP1 PUSH2 0x2E90 JUMP JUMPDEST DUP1 ISZERO PUSH2 0x13AA JUMPI POP PUSH2 0x13A9 PUSH8 0x79BAB4AE0724BD22 PUSH1 0xC0 SHL PUSH2 0x25A9 JUMP JUMPDEST JUMPDEST JUMPDEST PUSH2 0x13EA JUMPI PUSH1 0x40 MLOAD PUSH32 0x8C379A000000000000000000000000000000000000000000000000000000000 DUP2 MSTORE PUSH1 0x4 ADD PUSH2 0x13E1 SWAP1 PUSH2 0x2F09 JUMP JUMPDEST PUSH1 0x40 MLOAD DUP1 SWAP2 SUB SWAP1 REVERT JUMPDEST PUSH2 0x13FE PUSH8 0x7E29A5CA5642A68E PUSH1 0xC0 SHL PUSH2 0x2287 JUMP JUMPDEST PUSH2 0x1412 PUSH8 0x5AA990A5947B3C7C PUSH1 0xC0 SHL PUSH2 0x2287 JUMP JUMPDEST PUSH2 0x1426 PUSH8 0xE1997CD64681A98E PUSH1 0xC0 SHL PUSH2 0x2287 JUMP JUMPDEST PUSH2 0x143A PUSH8 0x33866A7C0E8F603F PUSH1 0xC0 SHL PUSH2 0x2287 JUMP JUMPDEST PUSH1 0x0 PUSH1 0x5 PUSH1 0x0 DUP7 PUSH20 0xFFFFFFFFFFFFFFFFFFFFFFFFFFFFFFFFFFFFFFFF AND PUSH20 0xFFFFFFFFFFFFFFFFFFFFFFFFFFFFFFFFFFFFFFFF AND DUP2 MSTORE PUSH1 0x20 ADD SWAP1 DUP2 MSTORE PUSH1 0x20 ADD PUSH1 0x0 KECCAK256 PUSH1 0x0 DUP6 DUP2 MSTORE PUSH1 0x20 ADD SWAP1 DUP2 MSTORE PUSH1 0x20 ADD PUSH1 0x0 KECCAK256 PUSH1 0x1 ADD SLOAD EQ PUSH2 0x14D0 JUMPI PUSH1 0x40 MLOAD PUSH32 0x8C379A000000000000000000000000000000000000000000000000000000000 DUP2 MSTORE PUSH1 0x4 ADD PUSH2 0x14C7 SWAP1 PUSH2 0x2F75 JUMP JUMPDEST PUSH1 0x40 MLOAD DUP1 SWAP2 SUB SWAP1 REVERT JUMPDEST PUSH2 0x14E4 PUSH8 0x181FB12DFD174904 PUSH1 0xC0 SHL PUSH2 0x2287 JUMP JUMPDEST PUSH2 0x14F8 PUSH8 0x9A154E59A4B2B17 PUSH1 0xC0 SHL PUSH2 0x2287 JUMP JUMPDEST PUSH1 0x40 MLOAD DUP1 PUSH1 0x40 ADD PUSH1 0x40 MSTORE DUP1 CALLER PUSH20 0xFFFFFFFFFFFFFFFFFFFFFFFFFFFFFFFFFFFFFFFF AND DUP2 MSTORE PUSH1 0x20 ADD DUP4 DUP2 MSTORE POP PUSH1 0x5 PUSH1 0x0 DUP7 PUSH20 0xFFFFFFFFFFFFFFFFFFFFFFFFFFFFFFFFFFFFFFFF AND PUSH20 0xFFFFFFFFFFFFFFFFFFFFFFFFFFFFFFFFFFFFFFFF AND DUP2 MSTORE PUSH1 0x20 ADD SWAP1 DUP2 MSTORE PUSH1 0x20 ADD PUSH1 0x0 KECCAK256 PUSH1 0x0 DUP6 DUP2 MSTORE PUSH1 0x20 ADD SWAP1 DUP2 MSTORE PUSH1 0x20 ADD PUSH1 0x0 KECCAK256 PUSH1 0x0 DUP3 ADD MLOAD DUP2 PUSH1 0x0 ADD PUSH1 0x0 PUSH2 0x100 EXP DUP2 SLOAD DUP2 PUSH20 0xFFFFFFFFFFFFFFFFFFFFFFFFFFFFFFFFFFFFFFFF MUL NOT AND SWAP1 DUP4 PUSH20 0xFFFFFFFFFFFFFFFFFFFFFFFFFFFFFFFFFFFFFFFF AND MUL OR SWAP1 SSTORE POP PUSH1 0x20 DUP3 ADD MLOAD DUP2 PUSH1 0x1 ADD SSTORE SWAP1 POP POP PUSH2 0x15DB PUSH8 0x76D4C333E57D6E08 PUSH1 0xC0 SHL PUSH2 0x2287 JUMP JUMPDEST PUSH2 0x15EF PUSH8 0x14DDD953F76240EE PUSH1 0xC0 SHL PUSH2 0x2287 JUMP JUMPDEST PUSH1 0x6 PUSH1 0x40 MLOAD DUP1 PUSH1 0x40 ADD PUSH1 0x40 MSTORE DUP1 DUP7 PUSH20 0xFFFFFFFFFFFFFFFFFFFFFFFFFFFFFFFFFFFFFFFF AND DUP2 MSTORE PUSH1 0x20 ADD DUP6 DUP2 MSTORE POP SWAP1 DUP1 PUSH1 0x1 DUP2 SLOAD ADD DUP1 DUP3 SSTORE DUP1 SWAP2 POP POP PUSH1 0x1 SWAP1 SUB SWAP1 PUSH1 0x0 MSTORE PUSH1 0x20 PUSH1 0x0 KECCAK256 SWAP1 PUSH1 0x2 MUL ADD PUSH1 0x0 SWAP1 SWAP2 SWAP1 SWAP2 SWAP1 SWAP2 POP PUSH1 0x0 DUP3 ADD MLOAD DUP2 PUSH1 0x0 ADD PUSH1 0x0 PUSH2 0x100 EXP DUP2 SLOAD DUP2 PUSH20 0xFFFFFFFFFFFFFFFFFFFFFFFFFFFFFFFFFFFFFFFF MUL NOT AND SWAP1 DUP4 PUSH20 0xFFFFFFFFFFFFFFFFFFFFFFFFFFFFFFFFFFFFFFFF AND MUL OR SWAP1 SSTORE POP PUSH1 0x20 DUP3 ADD MLOAD DUP2 PUSH1 0x1 ADD SSTORE POP POP PUSH2 0x16AC PUSH8 0xC66E48E4D6E56749 PUSH1 0xC0 SHL PUSH2 0x2287 JUMP JUMPDEST PUSH1 0x4 PUSH1 0x0 DUP2 SLOAD DUP1 SWAP3 SWAP2 SWAP1 PUSH2 0x16BF SWAP1 PUSH2 0x2F95 JUMP JUMPDEST SWAP2 SWAP1 POP SSTORE POP PUSH2 0x16D8 PUSH8 0xCDA7EC4954E3B623 PUSH1 0xC0 SHL PUSH2 0x2287 JUMP JUMPDEST PUSH2 0x16EC PUSH8 0x26E0E8BF582A21DB PUSH1 0xC0 SHL PUSH2 0x2287 JUMP JUMPDEST PUSH32 0x3111F8D6F242B90271D2BBB051D9789E25E045533DCAFA32B060CB8DEF4778C2 PUSH1 0x4 SLOAD PUSH1 0x40 MLOAD PUSH2 0x171D SWAP2 SWAP1 PUSH2 0x2731 JUMP JUMPDEST PUSH1 0x40 MLOAD DUP1 SWAP2 SUB SWAP1 LOG1 PUSH2 0x1739 PUSH8 0xA3075C02442CD62C PUSH1 0xC0 SHL PUSH2 0x2287 JUMP JUMPDEST PUSH2 0x174D PUSH8 0x78E01A589C0F643 PUSH1 0xC0 SHL PUSH2 0x2287 JUMP JUMPDEST DUP3 DUP5 PUSH20 0xFFFFFFFFFFFFFFFFFFFFFFFFFFFFFFFFFFFFFFFF AND CALLER PUSH20 0xFFFFFFFFFFFFFFFFFFFFFFFFFFFFFFFFFFFFFFFF AND PUSH32 0xBEAB3A2BB824B124A8A1EB465EEC003338D61B414DB132D37E9B3A984FDCF010 DUP6 PUSH1 0x40 MLOAD PUSH2 0x17AB SWAP2 SWAP1 PUSH2 0x2731 JUMP JUMPDEST PUSH1 0x40 MLOAD DUP1 SWAP2 SUB SWAP1 LOG4 POP POP POP POP JUMP JUMPDEST PUSH1 0x60 PUSH2 0x17CF PUSH8 0xA59B7BB00DCA1225 PUSH1 0xC0 SHL PUSH2 0x2287 JUMP JUMPDEST PUSH2 0x17E3 PUSH8 0xA707FE72BF00192F PUSH1 0xC0 SHL PUSH2 0x2287 JUMP JUMPDEST PUSH2 0x17F7 PUSH8 0xC1C411C973F0856B PUSH1 0xC0 SHL PUSH2 0x2287 JUMP JUMPDEST PUSH1 0x6 DUP1 SLOAD DUP1 PUSH1 0x20 MUL PUSH1 0x20 ADD PUSH1 0x40 MLOAD SWAP1 DUP2 ADD PUSH1 0x40 MSTORE DUP1 SWAP3 SWAP2 SWAP1 DUP2 DUP2 MSTORE PUSH1 0x20 ADD PUSH1 0x0 SWAP1 JUMPDEST DUP3 DUP3 LT ISZERO PUSH2 0x18AB JUMPI DUP4 DUP3 SWAP1 PUSH1 0x0 MSTORE PUSH1 0x20 PUSH1 0x0 KECCAK256 SWAP1 PUSH1 0x2 MUL ADD PUSH1 0x40 MLOAD DUP1 PUSH1 0x40 ADD PUSH1 0x40 MSTORE SWAP1 DUP2 PUSH1 0x0 DUP3 ADD PUSH1 0x0 SWAP1 SLOAD SWAP1 PUSH2 0x100 EXP SWAP1 DIV PUSH20 0xFFFFFFFFFFFFFFFFFFFFFFFFFFFFFFFFFFFFFFFF AND PUSH20 0xFFFFFFFFFFFFFFFFFFFFFFFFFFFFFFFFFFFFFFFF AND PUSH20 0xFFFFFFFFFFFFFFFFFFFFFFFFFFFFFFFFFFFFFFFF AND DUP2 MSTORE PUSH1 0x20 ADD PUSH1 0x1 DUP3 ADD SLOAD DUP2 MSTORE POP POP DUP2 MSTORE PUSH1 0x20 ADD SWAP1 PUSH1 0x1 ADD SWAP1 PUSH2 0x1819 JUMP JUMPDEST POP POP POP POP SWAP1 POP SWAP1 JUMP JUMPDEST PUSH2 0x18C8 PUSH8 0x5C727AC0FBF00ED9 PUSH1 0xC0 SHL PUSH2 0x2287 JUMP JUMPDEST DUP2 DUP2 PUSH2 0x18DE PUSH8 0x5EB82D93AA7B8814 PUSH1 0xC0 SHL PUSH2 0x2287 JUMP JUMPDEST PUSH2 0x18F2 PUSH8 0xB77E88C43AB03B0C PUSH1 0xC0 SHL PUSH2 0x2287 JUMP JUMPDEST PUSH2 0x1906 PUSH8 0x17E176031F4F9BF0 PUSH1 0xC0 SHL PUSH2 0x2287 JUMP JUMPDEST PUSH2 0x191A PUSH8 0x1F78A0E15CD6F647 PUSH1 0xC0 SHL PUSH2 0x2287 JUMP JUMPDEST PUSH1 0x0 PUSH20 0xFFFFFFFFFFFFFFFFFFFFFFFFFFFFFFFFFFFFFFFF AND PUSH1 0x5 PUSH1 0x0 DUP5 PUSH20 0xFFFFFFFFFFFFFFFFFFFFFFFFFFFFFFFFFFFFFFFF AND PUSH20 0xFFFFFFFFFFFFFFFFFFFFFFFFFFFFFFFFFFFFFFFF AND DUP2 MSTORE PUSH1 0x20 ADD SWAP1 DUP2 MSTORE PUSH1 0x20 ADD PUSH1 0x0 KECCAK256 PUSH1 0x0 DUP4 DUP2 MSTORE PUSH1 0x20 ADD SWAP1 DUP2 MSTORE PUSH1 0x20 ADD PUSH1 0x0 KECCAK256 PUSH1 0x0 ADD PUSH1 0x0 SWAP1 SLOAD SWAP1 PUSH2 0x100 EXP SWAP1 DIV PUSH20 0xFFFFFFFFFFFFFFFFFFFFFFFFFFFFFFFFFFFFFFFF AND PUSH20 0xFFFFFFFFFFFFFFFFFFFFFFFFFFFFFFFFFFFFFFFF AND SUB PUSH2 0x19FC JUMPI PUSH1 0x40 MLOAD PUSH32 0x8C379A000000000000000000000000000000000000000000000000000000000 DUP2 MSTORE PUSH1 0x4 ADD PUSH2 0x19F3 SWAP1 PUSH2 0x3029 JUMP JUMPDEST PUSH1 0x40 MLOAD DUP1 SWAP2 SUB SWAP1 REVERT JUMPDEST PUSH2 0x1A10 PUSH8 0xCFB88B7C04E961BA PUSH1 0xC0 SHL PUSH2 0x2287 JUMP JUMPDEST PUSH2 0x1A24 PUSH8 0x94B83F3E60BDA26 PUSH1 0xC0 SHL PUSH2 0x2287 JUMP JUMPDEST PUSH2 0x1A38 PUSH8 0x57A398D78666CC2A PUSH1 0xC0 SHL PUSH2 0x2287 JUMP JUMPDEST PUSH2 0x1A4C PUSH8 0xED2C6E594783217F PUSH1 0xC0 SHL PUSH2 0x2287 JUMP JUMPDEST DUP4 DUP4 PUSH2 0x1A62 PUSH8 0x1F234AEA9B2A1E75 PUSH1 0xC0 SHL PUSH2 0x2287 JUMP JUMPDEST PUSH2 0x1A76 PUSH8 0x8AE083626080A583 PUSH1 0xC0 SHL PUSH2 0x2287 JUMP JUMPDEST PUSH2 0x1A8A PUSH8 0x915837EB0FF55C24 PUSH1 0xC0 SHL PUSH2 0x2287 JUMP JUMPDEST PUSH2 0x1A9E PUSH8 0x3530E241C9010184 PUSH1 0xC0 SHL PUSH2 0x2287 JUMP JUMPDEST CALLER PUSH20 0xFFFFFFFFFFFFFFFFFFFFFFFFFFFFFFFFFFFFFFFF AND PUSH1 0x5 PUSH1 0x0 DUP5 PUSH20 0xFFFFFFFFFFFFFFFFFFFFFFFFFFFFFFFFFFFFFFFF AND PUSH20 0xFFFFFFFFFFFFFFFFFFFFFFFFFFFFFFFFFFFFFFFF AND DUP2 MSTORE PUSH1 0x20 ADD SWAP1 DUP2 MSTORE PUSH1 0x20 ADD PUSH1 0x0 KECCAK256 PUSH1 0x0 DUP4 DUP2 MSTORE PUSH1 0x20 ADD SWAP1 DUP2 MSTORE PUSH1 0x20 ADD PUSH1 0x0 KECCAK256 PUSH1 0x0 ADD PUSH1 0x0 SWAP1 SLOAD SWAP1 PUSH2 0x100 EXP SWAP1 DIV PUSH20 0xFFFFFFFFFFFFFFFFFFFFFFFFFFFFFFFFFFFFFFFF AND PUSH20 0xFFFFFFFFFFFFFFFFFFFFFFFFFFFFFFFFFFFFFFFF AND EQ PUSH2 0x1B7F JUMPI PUSH1 0x40 MLOAD PUSH32 0x8C379A000000000000000000000000000000000000000000000000000000000 DUP2 MSTORE PUSH1 0x4 ADD PUSH2 0x1B76 SWAP1 PUSH2 0x3095 JUMP JUMPDEST PUSH1 0x40 MLOAD DUP1 SWAP2 SUB SWAP1 REVERT JUMPDEST PUSH2 0x1B93 PUSH8 0x9EC21FD91CBC369D PUSH1 0xC0 SHL PUSH2 0x2287 JUMP JUMPDEST PUSH2 0x1BA7 PUSH8 0xFD18C5E9C232E676 PUSH1 0xC0 SHL PUSH2 0x2287 JUMP JUMPDEST PUSH2 0x1BBB PUSH8 0x53A7387DF8358C7F PUSH1 0xC0 SHL PUSH2 0x2287 JUMP JUMPDEST PUSH2 0x1BCF PUSH8 0x7542ED297DE9CA19 PUSH1 0xC0 SHL PUSH2 0x2287 JUMP JUMPDEST PUSH2 0x1BE3 PUSH8 0xDE26665EEC76F4C9 PUSH1 0xC0 SHL PUSH2 0x2287 JUMP JUMPDEST PUSH1 0x5 PUSH1 0x0 DUP8 PUSH20 0xFFFFFFFFFFFFFFFFFFFFFFFFFFFFFFFFFFFFFFFF AND PUSH20 0xFFFFFFFFFFFFFFFFFFFFFFFFFFFFFFFFFFFFFFFF AND DUP2 MSTORE PUSH1 0x20 ADD SWAP1 DUP2 MSTORE PUSH1 0x20 ADD PUSH1 0x0 KECCAK256 PUSH1 0x0 DUP7 DUP2 MSTORE PUSH1 0x20 ADD SWAP1 DUP2 MSTORE PUSH1 0x20 ADD PUSH1 0x0 KECCAK256 PUSH1 0x0 DUP1 DUP3 ADD PUSH1 0x0 PUSH2 0x100 EXP DUP2 SLOAD SWAP1 PUSH20 0xFFFFFFFFFFFFFFFFFFFFFFFFFFFFFFFFFFFFFFFF MUL NOT AND SWAP1 SSTORE PUSH1 0x1 DUP3 ADD PUSH1 0x0 SWAP1 SSTORE POP POP PUSH2 0x1C79 PUSH8 0xBBF41D32CAB5A468 PUSH1 0xC0 SHL PUSH2 0x2287 JUMP JUMPDEST PUSH2 0x1C8D PUSH8 0xC77A2A3C6DE764B8 PUSH1 0xC0 SHL PUSH2 0x2287 JUMP JUMPDEST PUSH2 0x1C97 DUP7 DUP7 PUSH2 0x22D0 JUMP JUMPDEST PUSH2 0x1CAB PUSH8 0xF9DB57830DF2ECDE PUSH1 0xC0 SHL PUSH2 0x2287 JUMP JUMPDEST PUSH2 0x1CBF PUSH8 0x92ABE8D838E2AA59 PUSH1 0xC0 SHL PUSH2 0x2287 JUMP JUMPDEST DUP5 DUP7 PUSH20 0xFFFFFFFFFFFFFFFFFFFFFFFFFFFFFFFFFFFFFFFF AND CALLER PUSH20 0xFFFFFFFFFFFFFFFFFFFFFFFFFFFFFFFFFFFFFFFF AND PUSH32 0xFB87149F10F1FFDA9C1DF55FAE0D68FE643C8BE0790EEC2F859205ED312CD68B PUSH1 0x40 MLOAD PUSH1 0x40 MLOAD DUP1 SWAP2 SUB SWAP1 LOG4 POP POP POP POP POP POP JUMP JUMPDEST PUSH1 0x6 DUP2 DUP2 SLOAD DUP2 LT PUSH2 0x1D32 JUMPI PUSH1 0x0 DUP1 REVERT JUMPDEST SWAP1 PUSH1 0x0 MSTORE PUSH1 0x20 PUSH1 0x0 KECCAK256 SWAP1 PUSH1 0x2 MUL ADD PUSH1 0x0 SWAP2 POP SWAP1 POP DUP1 PUSH1 0x0 ADD PUSH1 0x0 SWAP1 SLOAD SWAP1 PUSH2 0x100 EXP SWAP1 DIV PUSH20 0xFFFFFFFFFFFFFFFFFFFFFFFFFFFFFFFFFFFFFFFF AND SWAP1 DUP1 PUSH1 0x1 ADD SLOAD SWAP1 POP DUP3 JUMP JUMPDEST PUSH1 0x2 SLOAD DUP2 JUMP JUMPDEST PUSH1 0x4 SLOAD DUP2 JUMP JUMPDEST PUSH2 0x1D96 PUSH8 0x54B65C648045C628 PUSH1 0xC0 SHL PUSH2 0x2287 JUMP JUMPDEST DUP3 DUP3 PUSH2 0x1DAC PUSH8 0x5EB82D93AA7B8814 PUSH1 0xC0 SHL PUSH2 0x2287 JUMP JUMPDEST PUSH2 0x1DC0 PUSH8 0xB77E88C43AB03B0C PUSH1 0xC0 SHL PUSH2 0x2287 JUMP JUMPDEST PUSH2 0x1DD4 PUSH8 0x17E176031F4F9BF0 PUSH1 0xC0 SHL PUSH2 0x2287 JUMP JUMPDEST PUSH2 0x1DE8 PUSH8 0x1F78A0E15CD6F647 PUSH1 0xC0 SHL PUSH2 0x2287 JUMP JUMPDEST PUSH1 0x0 PUSH20 0xFFFFFFFFFFFFFFFFFFFFFFFFFFFFFFFFFFFFFFFF AND PUSH1 0x5 PUSH1 0x0 DUP5 PUSH20 0xFFFFFFFFFFFFFFFFFFFFFFFFFFFFFFFFFFFFFFFF AND PUSH20 0xFFFFFFFFFFFFFFFFFFFFFFFFFFFFFFFFFFFFFFFF AND DUP2 MSTORE PUSH1 0x20 ADD SWAP1 DUP2 MSTORE PUSH1 0x20 ADD PUSH1 0x0 KECCAK256 PUSH1 0x0 DUP4 DUP2 MSTORE PUSH1 0x20 ADD SWAP1 DUP2 MSTORE PUSH1 0x20 ADD PUSH1 0x0 KECCAK256 PUSH1 0x0 ADD PUSH1 0x0 SWAP1 SLOAD SWAP1 PUSH2 0x100 EXP SWAP1 DIV PUSH20 0xFFFFFFFFFFFFFFFFFFFFFFFFFFFFFFFFFFFFFFFF AND PUSH20 0xFFFFFFFFFFFFFFFFFFFFFFFFFFFFFFFFFFFFFFFF AND SUB PUSH2 0x1ECA JUMPI PUSH1 0x40 MLOAD PUSH32 0x8C379A000000000000000000000000000000000000000000000000000000000 DUP2 MSTORE PUSH1 0x4 ADD PUSH2 0x1EC1 SWAP1 PUSH2 0x3029 JUMP JUMPDEST PUSH1 0x40 MLOAD DUP1 SWAP2 SUB SWAP1 REVERT JUMPDEST PUSH2 0x1EDE PUSH8 0xCFB88B7C04E961BA PUSH1 0xC0 SHL PUSH2 0x2287 JUMP JUMPDEST PUSH2 0x1EF2 PUSH8 0x94B83F3E60BDA26 PUSH1 0xC0 SHL PUSH2 0x2287 JUMP JUMPDEST PUSH2 0x1F06 PUSH8 0x5CE2D24002E1F433 PUSH1 0xC0 SHL PUSH2 0x2287 JUMP JUMPDEST PUSH2 0x1F1A PUSH8 0xC4FA4CF2F91AC058 PUSH1 0xC0 SHL PUSH2 0x2287 JUMP JUMPDEST DUP5 DUP5 PUSH2 0x1F30 PUSH8 0x1F234AEA9B2A1E75 PUSH1 0xC0 SHL PUSH2 0x2287 JUMP JUMPDEST PUSH2 0x1F44 PUSH8 0x8AE083626080A583 PUSH1 0xC0 SHL PUSH2 0x2287 JUMP JUMPDEST PUSH2 0x1F58 PUSH8 0x915837EB0FF55C24 PUSH1 0xC0 SHL PUSH2 0x2287 JUMP JUMPDEST PUSH2 0x1F6C PUSH8 0x3530E241C9010184 PUSH1 0xC0 SHL PUSH2 0x2287 JUMP JUMPDEST CALLER PUSH20 0xFFFFFFFFFFFFFFFFFFFFFFFFFFFFFFFFFFFFFFFF AND PUSH1 0x5 PUSH1 0x0 DUP5 PUSH20 0xFFFFFFFFFFFFFFFFFFFFFFFFFFFFFFFFFFFFFFFF AND PUSH20 0xFFFFFFFFFFFFFFFFFFFFFFFFFFFFFFFFFFFFFFFF AND DUP2 MSTORE PUSH1 0x20 ADD SWAP1 DUP2 MSTORE PUSH1 0x20 ADD PUSH1 0x0 KECCAK256 PUSH1 0x0 DUP4 DUP2 MSTORE PUSH1 0x20 ADD SWAP1 DUP2 MSTORE PUSH1 0x20 ADD PUSH1 0x0 KECCAK256 PUSH1 0x0 ADD PUSH1 0x0 SWAP1 SLOAD SWAP1 PUSH2 0x100 EXP SWAP1 DIV PUSH20 0xFFFFFFFFFFFFFFFFFFFFFFFFFFFFFFFFFFFFFFFF AND PUSH20 0xFFFFFFFFFFFFFFFFFFFFFFFFFFFFFFFFFFFFFFFF AND EQ PUSH2 0x204D JUMPI PUSH1 0x40 MLOAD PUSH32 0x8C379A000000000000000000000000000000000000000000000000000000000 DUP2 MSTORE PUSH1 0x4 ADD PUSH2 0x2044 SWAP1 PUSH2 0x3095 JUMP JUMPDEST PUSH1 0x40 MLOAD DUP1 SWAP2 SUB SWAP1 REVERT JUMPDEST PUSH2 0x2061 PUSH8 0x9EC21FD91CBC369D PUSH1 0xC0 SHL PUSH2 0x2287 JUMP JUMPDEST PUSH2 0x2075 PUSH8 0xFD18C5E9C232E676 PUSH1 0xC0 SHL PUSH2 0x2287 JUMP JUMPDEST PUSH2 0x2089 PUSH8 0x40AB62FBAF0218A PUSH1 0xC0 SHL PUSH2 0x2287 JUMP JUMPDEST PUSH2 0x209D PUSH8 0x94E986B2BE53EC5D PUSH1 0xC0 SHL PUSH2 0x2287 JUMP JUMPDEST PUSH2 0x20B1 PUSH8 0xC4885A3F6AB3F9EF PUSH1 0xC0 SHL PUSH2 0x2287 JUMP JUMPDEST PUSH2 0x20C5 PUSH8 0x58AC0AB564AE9D9C PUSH1 0xC0 SHL PUSH2 0x2287 JUMP JUMPDEST PUSH1 0x0 PUSH1 0x5 PUSH1 0x0 DUP10 PUSH20 0xFFFFFFFFFFFFFFFFFFFFFFFFFFFFFFFFFFFFFFFF AND PUSH20 0xFFFFFFFFFFFFFFFFFFFFFFFFFFFFFFFFFFFFFFFF AND DUP2 MSTORE PUSH1 0x20 ADD SWAP1 DUP2 MSTORE PUSH1 0x20 ADD PUSH1 0x0 KECCAK256 PUSH1 0x0 DUP9 DUP2 MSTORE PUSH1 0x20 ADD SWAP1 DUP2 MSTORE PUSH1 0x20 ADD PUSH1 0x0 KECCAK256 SWAP1 POP PUSH2 0x212D PUSH8 0x401294D482866C3D PUSH1 0xC0 SHL PUSH2 0x2287 JUMP JUMPDEST PUSH2 0x2141 PUSH8 0x4D01A8F038C9808B PUSH1 0xC0 SHL PUSH2 0x2287 JUMP JUMPDEST PUSH2 0x2155 PUSH8 0xEA8A1B1FE83819AD PUSH1 0xC0 SHL PUSH2 0x2287 JUMP JUMPDEST PUSH1 0x0 DUP7 GT PUSH2 0x2198 JUMPI PUSH1 0x40 MLOAD PUSH32 0x8C379A000000000000000000000000000000000000000000000000000000000 DUP2 MSTORE PUSH1 0x4 ADD PUSH2 0x218F SWAP1 PUSH2 0x3101 JUMP JUMPDEST PUSH1 0x40 MLOAD DUP1 SWAP2 SUB SWAP1 REVERT JUMPDEST PUSH2 0x21AC PUSH8 0x966FC6E35225F05C PUSH1 0xC0 SHL PUSH2 0x2287 JUMP JUMPDEST PUSH2 0x21C0 PUSH8 0x207CA5A8722D74B4 PUSH1 0xC0 SHL PUSH2 0x2287 JUMP JUMPDEST DUP6 DUP2 PUSH1 0x1 ADD DUP2 SWAP1 SSTORE POP PUSH2 0x21DD PUSH8 0xC35F6DB4EEE49663 PUSH1 0xC0 SHL PUSH2 0x2287 JUMP JUMPDEST PUSH2 0x21F1 PUSH8 0x3BAC5EFBA7D78730 PUSH1 0xC0 SHL PUSH2 0x2287 JUMP JUMPDEST DUP7 DUP9 PUSH20 0xFFFFFFFFFFFFFFFFFFFFFFFFFFFFFFFFFFFFFFFF AND CALLER PUSH20 0xFFFFFFFFFFFFFFFFFFFFFFFFFFFFFFFFFFFFFFFF AND PUSH32 0xAF55BB2D5976CF0B636BA8903D1F3A441F6056DED6BC491DCFAD6D2E0827E16 DUP10 PUSH1 0x40 MLOAD PUSH2 0x224F SWAP2 SWAP1 PUSH2 0x2731 JUMP JUMPDEST PUSH1 0x40 MLOAD DUP1 SWAP2 SUB SWAP1 LOG4 POP POP POP POP POP POP POP POP JUMP JUMPDEST PUSH1 0x1 PUSH1 0x0 SWAP1 SLOAD SWAP1 PUSH2 0x100 EXP SWAP1 DIV PUSH20 0xFFFFFFFFFFFFFFFFFFFFFFFFFFFFFFFFFFFFFFFF AND DUP2 JUMP JUMPDEST POP JUMP JUMPDEST PUSH1 0x2 PUSH1 0x0 SLOAD SUB PUSH2 0x22C6 JUMPI PUSH1 0x40 MLOAD PUSH32 0x3EE5AEB500000000000000000000000000000000000000000000000000000000 DUP2 MSTORE PUSH1 0x4 ADD PUSH1 0x40 MLOAD DUP1 SWAP2 SUB SWAP1 REVERT JUMPDEST PUSH1 0x2 PUSH1 0x0 DUP2 SWAP1 SSTORE POP JUMP JUMPDEST PUSH2 0x22E4 PUSH8 0x5C11EB598213D941 PUSH1 0xC0 SHL PUSH2 0x2287 JUMP JUMPDEST PUSH2 0x22F8 PUSH8 0x5DA3DDCC20F7D81C PUSH1 0xC0 SHL PUSH2 0x2287 JUMP JUMPDEST PUSH2 0x230C PUSH8 0xDFD9D26611D842A0 PUSH1 0xC0 SHL PUSH2 0x2287 JUMP JUMPDEST PUSH1 0x0 JUMPDEST PUSH1 0x6 DUP1 SLOAD SWAP1 POP DUP2 LT ISZERO PUSH2 0x259A JUMPI PUSH2 0x2330 PUSH8 0x61DCEAB95F229930 PUSH1 0xC0 SHL PUSH2 0x2287 JUMP JUMPDEST PUSH2 0x2344 PUSH8 0x204983CFABA81C85 PUSH1 0xC0 SHL PUSH2 0x2287 JUMP JUMPDEST DUP3 PUSH20 0xFFFFFFFFFFFFFFFFFFFFFFFFFFFFFFFFFFFFFFFF AND PUSH1 0x6 DUP3 DUP2 SLOAD DUP2 LT PUSH2 0x236F JUMPI PUSH2 0x236E PUSH2 0x3121 JUMP JUMPDEST JUMPDEST SWAP1 PUSH1 0x0 MSTORE PUSH1 0x20 PUSH1 0x0 KECCAK256 SWAP1 PUSH1 0x2 MUL ADD PUSH1 0x0 ADD PUSH1 0x0 SWAP1 SLOAD SWAP1 PUSH2 0x100 EXP SWAP1 DIV PUSH20 0xFFFFFFFFFFFFFFFFFFFFFFFFFFFFFFFFFFFFFFFF AND PUSH20 0xFFFFFFFFFFFFFFFFFFFFFFFFFFFFFFFFFFFFFFFF AND EQ DUP1 ISZERO PUSH2 0x23E8 JUMPI POP DUP2 PUSH1 0x6 DUP3 DUP2 SLOAD DUP2 LT PUSH2 0x23D4 JUMPI PUSH2 0x23D3 PUSH2 0x3121 JUMP JUMPDEST JUMPDEST SWAP1 PUSH1 0x0 MSTORE PUSH1 0x20 PUSH1 0x0 KECCAK256 SWAP1 PUSH1 0x2 MUL ADD PUSH1 0x1 ADD SLOAD EQ JUMPDEST ISZERO PUSH2 0x2579 JUMPI PUSH2 0x2401 PUSH8 0xCC9AA75694FBA9F8 PUSH1 0xC0 SHL PUSH2 0x2287 JUMP JUMPDEST PUSH2 0x2415 PUSH8 0x9FF620236CDE7DC8 PUSH1 0xC0 SHL PUSH2 0x2287 JUMP JUMPDEST PUSH1 0x6 PUSH1 0x1 PUSH1 0x6 DUP1 SLOAD SWAP1 POP PUSH2 0x2429 SWAP2 SWAP1 PUSH2 0x2C76 JUMP JUMPDEST DUP2 SLOAD DUP2 LT PUSH2 0x243A JUMPI PUSH2 0x2439 PUSH2 0x3121 JUMP JUMPDEST JUMPDEST SWAP1 PUSH1 0x0 MSTORE PUSH1 0x20 PUSH1 0x0 KECCAK256 SWAP1 PUSH1 0x2 MUL ADD PUSH1 0x6 DUP3 DUP2 SLOAD DUP2 LT PUSH2 0x245C JUMPI PUSH2 0x245B PUSH2 0x3121 JUMP JUMPDEST JUMPDEST SWAP1 PUSH1 0x0 MSTORE PUSH1 0x20 PUSH1 0x0 KECCAK256 SWAP1 PUSH1 0x2 MUL ADD PUSH1 0x0 DUP3 ADD PUSH1 0x0 SWAP1 SLOAD SWAP1 PUSH2 0x100 EXP SWAP1 DIV PUSH20 0xFFFFFFFFFFFFFFFFFFFFFFFFFFFFFFFFFFFFFFFF AND DUP2 PUSH1 0x0 ADD PUSH1 0x0 PUSH2 0x100 EXP DUP2 SLOAD DUP2 PUSH20 0xFFFFFFFFFFFFFFFFFFFFFFFFFFFFFFFFFFFFFFFF MUL NOT AND SWAP1 DUP4 PUSH20 0xFFFFFFFFFFFFFFFFFFFFFFFFFFFFFFFFFFFFFFFF AND MUL OR SWAP1 SSTORE POP PUSH1 0x1 DUP3 ADD SLOAD DUP2 PUSH1 0x1 ADD SSTORE SWAP1 POP POP PUSH2 0x24F2 PUSH8 0xF446323EBD5DFFE PUSH1 0xC0 SHL PUSH2 0x2287 JUMP JUMPDEST PUSH2 0x2506 PUSH8 0xE9CE88EF317ACF41 PUSH1 0xC0 SHL PUSH2 0x2287 JUMP JUMPDEST PUSH1 0x6 DUP1 SLOAD DUP1 PUSH2 0x2518 JUMPI PUSH2 0x2517 PUSH2 0x3150 JUMP JUMPDEST JUMPDEST PUSH1 0x1 SWAP1 SUB DUP2 DUP2 SWAP1 PUSH1 0x0 MSTORE PUSH1 0x20 PUSH1 0x0 KECCAK256 SWAP1 PUSH1 0x2 MUL ADD PUSH1 0x0 DUP1 DUP3 ADD PUSH1 0x0 PUSH2 0x100 EXP DUP2 SLOAD SWAP1 PUSH20 0xFFFFFFFFFFFFFFFFFFFFFFFFFFFFFFFFFFFFFFFF MUL NOT AND SWAP1 SSTORE PUSH1 0x1 DUP3 ADD PUSH1 0x0 SWAP1 SSTORE POP POP SWAP1 SSTORE PUSH2 0x2574 PUSH8 0xD4C3E30282C08541 PUSH1 0xC0 SHL PUSH2 0x2287 JUMP JUMPDEST PUSH2 0x259A JUMP JUMPDEST PUSH2 0x258D PUSH8 0xC46915B7C78708C0 PUSH1 0xC0 SHL PUSH2 0x2287 JUMP JUMPDEST DUP1 DUP1 PUSH1 0x1 ADD SWAP2 POP POP PUSH2 0x230F JUMP JUMPDEST POP POP POP JUMP JUMPDEST PUSH1 0x1 PUSH1 0x0 DUP2 SWAP1 SSTORE POP JUMP JUMPDEST PUSH1 0x0 PUSH1 0x1 SWAP1 POP SWAP2 SWAP1 POP JUMP JUMPDEST PUSH1 0x40 MLOAD DUP1 PUSH1 0x40 ADD PUSH1 0x40 MSTORE DUP1 PUSH1 0x0 PUSH20 0xFFFFFFFFFFFFFFFFFFFFFFFFFFFFFFFFFFFFFFFF AND DUP2 MSTORE PUSH1 0x20 ADD PUSH1 0x0 DUP2 MSTORE POP SWAP1 JUMP JUMPDEST PUSH1 0x0 DUP1 REVERT JUMPDEST PUSH1 0x0 PUSH20 0xFFFFFFFFFFFFFFFFFFFFFFFFFFFFFFFFFFFFFFFF DUP3 AND SWAP1 POP SWAP2 SWAP1 POP JUMP JUMPDEST PUSH1 0x0 PUSH2 0x2614 DUP3 PUSH2 0x25E9 JUMP JUMPDEST SWAP1 POP SWAP2 SWAP1 POP JUMP JUMPDEST PUSH2 0x2624 DUP2 PUSH2 0x2609 JUMP JUMPDEST DUP2 EQ PUSH2 0x262F JUMPI PUSH1 0x0 DUP1 REVERT JUMPDEST POP JUMP JUMPDEST PUSH1 0x0 DUP2 CALLDATALOAD SWAP1 POP PUSH2 0x2641 DUP2 PUSH2 0x261B JUMP JUMPDEST SWAP3 SWAP2 POP POP JUMP JUMPDEST PUSH1 0x0 DUP2 SWAP1 POP SWAP2 SWAP1 POP JUMP JUMPDEST PUSH2 0x265A DUP2 PUSH2 0x2647 JUMP JUMPDEST DUP2 EQ PUSH2 0x2665 JUMPI PUSH1 0x0 DUP1 REVERT JUMPDEST POP JUMP JUMPDEST PUSH1 0x0 DUP2 CALLDATALOAD SWAP1 POP PUSH2 0x2677 DUP2 PUSH2 0x2651 JUMP JUMPDEST SWAP3 SWAP2 POP POP JUMP JUMPDEST PUSH1 0x0 DUP1 PUSH1 0x40 DUP4 DUP6 SUB SLT ISZERO PUSH2 0x2694 JUMPI PUSH2 0x2693 PUSH2 0x25E4 JUMP JUMPDEST JUMPDEST PUSH1 0x0 PUSH2 0x26A2 DUP6 DUP3 DUP7 ADD PUSH2 0x2632 JUMP JUMPDEST SWAP3 POP POP PUSH1 0x20 PUSH2 0x26B3 DUP6 DUP3 DUP7 ADD PUSH2 0x2668 JUMP JUMPDEST SWAP2 POP POP SWAP3 POP SWAP3 SWAP1 POP JUMP JUMPDEST PUSH2 0x26C6 DUP2 PUSH2 0x2609 JUMP JUMPDEST DUP3 MSTORE POP POP JUMP JUMPDEST PUSH2 0x26D5 DUP2 PUSH2 0x2647 JUMP JUMPDEST DUP3 MSTORE POP POP JUMP JUMPDEST PUSH1 0x0 PUSH1 0x40 DUP3 ADD SWAP1 POP PUSH2 0x26F0 PUSH1 0x0 DUP4 ADD DUP6 PUSH2 0x26BD JUMP JUMPDEST PUSH2 0x26FD PUSH1 0x20 DUP4 ADD DUP5 PUSH2 0x26CC JUMP JUMPDEST SWAP4 SWAP3 POP POP POP JUMP JUMPDEST PUSH1 0x0 PUSH1 0x20 DUP3 DUP5 SUB SLT ISZERO PUSH2 0x271A JUMPI PUSH2 0x2719 PUSH2 0x25E4 JUMP JUMPDEST JUMPDEST PUSH1 0x0 PUSH2 0x2728 DUP5 DUP3 DUP6 ADD PUSH2 0x2668 JUMP JUMPDEST SWAP2 POP POP SWAP3 SWAP2 POP POP JUMP JUMPDEST PUSH1 0x0 PUSH1 0x20 DUP3 ADD SWAP1 POP PUSH2 0x2746 PUSH1 0x0 DUP4 ADD DUP5 PUSH2 0x26CC JUMP JUMPDEST SWAP3 SWAP2 POP POP JUMP JUMPDEST PUSH1 0x0 PUSH1 0x20 DUP3 DUP5 SUB SLT ISZERO PUSH2 0x2762 JUMPI PUSH2 0x2761 PUSH2 0x25E4 JUMP JUMPDEST JUMPDEST PUSH1 0x0 PUSH2 0x2770 DUP5 DUP3 DUP6 ADD PUSH2 0x2632 JUMP JUMPDEST SWAP2 POP POP SWAP3 SWAP2 POP POP JUMP JUMPDEST PUSH2 0x2782 DUP2 PUSH2 0x2609 JUMP JUMPDEST DUP3 MSTORE POP POP JUMP JUMPDEST PUSH2 0x2791 DUP2 PUSH2 0x2647 JUMP JUMPDEST DUP3 MSTORE POP POP JUMP JUMPDEST PUSH1 0x40 DUP3 ADD PUSH1 0x0 DUP3 ADD MLOAD PUSH2 0x27AD PUSH1 0x0 DUP6 ADD DUP3 PUSH2 0x2779 JUMP JUMPDEST POP PUSH1 0x20 DUP3 ADD MLOAD PUSH2 0x27C0 PUSH1 0x20 DUP6 ADD DUP3 PUSH2 0x2788 JUMP JUMPDEST POP POP POP POP JUMP JUMPDEST PUSH1 0x0 PUSH1 0x40 DUP3 ADD SWAP1 POP PUSH2 0x27DB PUSH1 0x0 DUP4 ADD DUP5 PUSH2 0x2797 JUMP JUMPDEST SWAP3 SWAP2 POP POP JUMP JUMPDEST PUSH1 0x0 DUP1 PUSH1 0x0 PUSH1 0x60 DUP5 DUP7 SUB SLT ISZERO PUSH2 0x27FA JUMPI PUSH2 0x27F9 PUSH2 0x25E4 JUMP JUMPDEST JUMPDEST PUSH1 0x0 PUSH2 0x2808 DUP7 DUP3 DUP8 ADD PUSH2 0x2632 JUMP JUMPDEST SWAP4 POP POP PUSH1 0x20 PUSH2 0x2819 DUP7 DUP3 DUP8 ADD PUSH2 0x2668 JUMP JUMPDEST SWAP3 POP POP PUSH1 0x40 PUSH2 0x282A DUP7 DUP3 DUP8 ADD PUSH2 0x2668 JUMP JUMPDEST SWAP2 POP POP SWAP3 POP SWAP3 POP SWAP3 JUMP JUMPDEST PUSH1 0x0 DUP2 MLOAD SWAP1 POP SWAP2 SWAP1 POP JUMP JUMPDEST PUSH1 0x0 DUP3 DUP3 MSTORE PUSH1 0x20 DUP3 ADD SWAP1 POP SWAP3 SWAP2 POP POP JUMP JUMPDEST PUSH1 0x0 DUP2 SWAP1 POP PUSH1 0x20 DUP3 ADD SWAP1 POP SWAP2 SWAP1 POP JUMP JUMPDEST PUSH1 0x40 DUP3 ADD PUSH1 0x0 DUP3 ADD MLOAD PUSH2 0x2876 PUSH1 0x0 DUP6 ADD DUP3 PUSH2 0x2779 JUMP JUMPDEST POP PUSH1 0x20 DUP3 ADD MLOAD PUSH2 0x2889 PUSH1 0x20 DUP6 ADD DUP3 PUSH2 0x2788 JUMP JUMPDEST POP POP POP POP JUMP JUMPDEST PUSH1 0x0 PUSH2 0x289B DUP4 DUP4 PUSH2 0x2860 JUMP JUMPDEST PUSH1 0x40 DUP4 ADD SWAP1 POP SWAP3 SWAP2 POP POP JUMP JUMPDEST PUSH1 0x0 PUSH1 0x20 DUP3 ADD SWAP1 POP SWAP2 SWAP1 POP JUMP JUMPDEST PUSH1 0x0 PUSH2 0x28BF DUP3 PUSH2 0x2834 JUMP JUMPDEST PUSH2 0x28C9 DUP2 DUP6 PUSH2 0x283F JUMP JUMPDEST SWAP4 POP PUSH2 0x28D4 DUP4 PUSH2 0x2850 JUMP JUMPDEST DUP1 PUSH1 0x0 JUMPDEST DUP4 DUP2 LT ISZERO PUSH2 0x2905 JUMPI DUP2 MLOAD PUSH2 0x28EC DUP9 DUP3 PUSH2 0x288F JUMP JUMPDEST SWAP8 POP PUSH2 0x28F7 DUP4 PUSH2 0x28A7 JUMP JUMPDEST SWAP3 POP POP PUSH1 0x1 DUP2 ADD SWAP1 POP PUSH2 0x28D8 JUMP JUMPDEST POP DUP6 SWAP4 POP POP POP POP SWAP3 SWAP2 POP POP JUMP JUMPDEST PUSH1 0x0 PUSH1 0x20 DUP3 ADD SWAP1 POP DUP2 DUP2 SUB PUSH1 0x0 DUP4 ADD MSTORE PUSH2 0x292C DUP2 DUP5 PUSH2 0x28B4 JUMP JUMPDEST SWAP1 POP SWAP3 SWAP2 POP POP JUMP JUMPDEST PUSH1 0x0 PUSH1 0x20 DUP3 ADD SWAP1 POP PUSH2 0x2949 PUSH1 0x0 DUP4 ADD DUP5 PUSH2 0x26BD JUMP JUMPDEST SWAP3 SWAP2 POP POP JUMP JUMPDEST PUSH1 0x0 DUP3 DUP3 MSTORE PUSH1 0x20 DUP3 ADD SWAP1 POP SWAP3 SWAP2 POP POP JUMP JUMPDEST PUSH32 0x4E6F742061646D696E0000000000000000000000000000000000000000000000 PUSH1 0x0 DUP3 ADD MSTORE POP JUMP JUMPDEST PUSH1 0x0 PUSH2 0x2996 PUSH1 0x9 DUP4 PUSH2 0x294F JUMP JUMPDEST SWAP2 POP PUSH2 0x29A1 DUP3 PUSH2 0x2960 JUMP JUMPDEST PUSH1 0x20 DUP3 ADD SWAP1 POP SWAP2 SWAP1 POP JUMP JUMPDEST PUSH1 0x0 PUSH1 0x20 DUP3 ADD SWAP1 POP DUP2 DUP2 SUB PUSH1 0x0 DUP4 ADD MSTORE PUSH2 0x29C5 DUP2 PUSH2 0x2989 JUMP JUMPDEST SWAP1 POP SWAP2 SWAP1 POP JUMP JUMPDEST PUSH32 0x4D61782066656520697320313025000000000000000000000000000000000000 PUSH1 0x0 DUP3 ADD MSTORE POP JUMP JUMPDEST PUSH1 0x0 PUSH2 0x2A02 PUSH1 0xE DUP4 PUSH2 0x294F JUMP JUMPDEST SWAP2 POP PUSH2 0x2A0D DUP3 PUSH2 0x29CC JUMP JUMPDEST PUSH1 0x20 DUP3 ADD SWAP1 POP SWAP2 SWAP1 POP JUMP JUMPDEST PUSH1 0x0 PUSH1 0x20 DUP3 ADD SWAP1 POP DUP2 DUP2 SUB PUSH1 0x0 DUP4 ADD MSTORE PUSH2 0x2A31 DUP2 PUSH2 0x29F5 JUMP JUMPDEST SWAP1 POP SWAP2 SWAP1 POP JUMP JUMPDEST PUSH1 0x0 PUSH1 0x40 DUP3 ADD SWAP1 POP PUSH2 0x2A4D PUSH1 0x0 DUP4 ADD DUP6 PUSH2 0x26CC JUMP JUMPDEST PUSH2 0x2A5A PUSH1 0x20 DUP4 ADD DUP5 PUSH2 0x26CC JUMP JUMPDEST SWAP4 SWAP3 POP POP POP JUMP JUMPDEST PUSH32 0x496E76616C696420616464726573730000000000000000000000000000000000 PUSH1 0x0 DUP3 ADD MSTORE POP JUMP JUMPDEST PUSH1 0x0 PUSH2 0x2A97 PUSH1 0xF DUP4 PUSH2 0x294F JUMP JUMPDEST SWAP2 POP PUSH2 0x2AA2 DUP3 PUSH2 0x2A61 JUMP JUMPDEST PUSH1 0x20 DUP3 ADD SWAP1 POP SWAP2 SWAP1 POP JUMP JUMPDEST PUSH1 0x0 PUSH1 0x20 DUP3 ADD SWAP1 POP DUP2 DUP2 SUB PUSH1 0x0 DUP4 ADD MSTORE PUSH2 0x2AC6 DUP2 PUSH2 0x2A8A JUMP JUMPDEST SWAP1 POP SWAP2 SWAP1 POP JUMP JUMPDEST PUSH32 0x4E6F74206C697374656400000000000000000000000000000000000000000000 PUSH1 0x0 DUP3 ADD MSTORE POP JUMP JUMPDEST PUSH1 0x0 PUSH2 0x2B03 PUSH1 0xA DUP4 PUSH2 0x294F JUMP JUMPDEST SWAP2 POP PUSH2 0x2B0E DUP3 PUSH2 0x2ACD JUMP JUMPDEST PUSH1 0x20 DUP3 ADD SWAP1 POP SWAP2 SWAP1 POP JUMP JUMPDEST PUSH1 0x0 PUSH1 0x20 DUP3 ADD SWAP1 POP DUP2 DUP2 SUB PUSH1 0x0 DUP4 ADD MSTORE PUSH2 0x2B32 DUP2 PUSH2 0x2AF6 JUMP JUMPDEST SWAP1 POP SWAP2 SWAP1 POP JUMP JUMPDEST PUSH32 0x496E636F72726563742070726963650000000000000000000000000000000000 PUSH1 0x0 DUP3 ADD MSTORE POP JUMP JUMPDEST PUSH1 0x0 PUSH2 0x2B6F PUSH1 0xF DUP4 PUSH2 0x294F JUMP JUMPDEST SWAP2 POP PUSH2 0x2B7A DUP3 PUSH2 0x2B39 JUMP JUMPDEST PUSH1 0x20 DUP3 ADD SWAP1 POP SWAP2 SWAP1 POP JUMP JUMPDEST PUSH1 0x0 PUSH1 0x20 DUP3 ADD SWAP1 POP DUP2 DUP2 SUB PUSH1 0x0 DUP4 ADD MSTORE PUSH2 0x2B9E DUP2 PUSH2 0x2B62 JUMP JUMPDEST SWAP1 POP SWAP2 SWAP1 POP JUMP JUMPDEST PUSH32 0x4E487B7100000000000000000000000000000000000000000000000000000000 PUSH1 0x0 MSTORE PUSH1 0x11 PUSH1 0x4 MSTORE PUSH1 0x24 PUSH1 0x0 REVERT JUMPDEST PUSH1 0x0 PUSH2 0x2BDF DUP3 PUSH2 0x2647 JUMP JUMPDEST SWAP2 POP PUSH2 0x2BEA DUP4 PUSH2 0x2647 JUMP JUMPDEST SWAP3 POP DUP3 DUP3 MUL PUSH2 0x2BF8 DUP2 PUSH2 0x2647 JUMP JUMPDEST SWAP2 POP DUP3 DUP3 DIV DUP5 EQ DUP4 ISZERO OR PUSH2 0x2C0F JUMPI PUSH2 0x2C0E PUSH2 0x2BA5 JUMP JUMPDEST JUMPDEST POP SWAP3 SWAP2 POP POP JUMP JUMPDEST PUSH32 0x4E487B7100000000000000000000000000000000000000000000000000000000 PUSH1 0x0 MSTORE PUSH1 0x12 PUSH1 0x4 MSTORE PUSH1 0x24 PUSH1 0x0 REVERT JUMPDEST PUSH1 0x0 PUSH2 0x2C50 DUP3 PUSH2 0x2647 JUMP JUMPDEST SWAP2 POP PUSH2 0x2C5B DUP4 PUSH2 0x2647 JUMP JUMPDEST SWAP3 POP DUP3 PUSH2 0x2C6B JUMPI PUSH2 0x2C6A PUSH2 0x2C16 JUMP JUMPDEST JUMPDEST DUP3 DUP3 DIV SWAP1 POP SWAP3 SWAP2 POP POP JUMP JUMPDEST PUSH1 0x0 PUSH2 0x2C81 DUP3 PUSH2 0x2647 JUMP JUMPDEST SWAP2 POP PUSH2 0x2C8C DUP4 PUSH2 0x2647 JUMP JUMPDEST SWAP3 POP DUP3 DUP3 SUB SWAP1 POP DUP2 DUP2 GT ISZERO PUSH2 0x2CA4 JUMPI PUSH2 0x2CA3 PUSH2 0x2BA5 JUMP JUMPDEST JUMPDEST SWAP3 SWAP2 POP POP JUMP JUMPDEST PUSH1 0x0 PUSH2 0x2CB5 DUP3 PUSH2 0x2647 JUMP JUMPDEST SWAP2 POP PUSH2 0x2CC0 DUP4 PUSH2 0x2647 JUMP JUMPDEST SWAP3 POP DUP3 DUP3 ADD SWAP1 POP DUP1 DUP3 GT ISZERO PUSH2 0x2CD8 JUMPI PUSH2 0x2CD7 PUSH2 0x2BA5 JUMP JUMPDEST JUMPDEST SWAP3 SWAP2 POP POP JUMP JUMPDEST PUSH1 0x0 PUSH1 0x60 DUP3 ADD SWAP1 POP PUSH2 0x2CF3 PUSH1 0x0 DUP4 ADD DUP7 PUSH2 0x26BD JUMP JUMPDEST PUSH2 0x2D00 PUSH1 0x20 DUP4 ADD DUP6 PUSH2 0x26BD JUMP JUMPDEST PUSH2 0x2D0D PUSH1 0x40 DUP4 ADD DUP5 PUSH2 0x26CC JUMP JUMPDEST SWAP5 SWAP4 POP POP POP POP JUMP JUMPDEST PUSH32 0x5072696365206D7573742062652067726561746572207468616E203000000000 PUSH1 0x0 DUP3 ADD MSTORE POP JUMP JUMPDEST PUSH1 0x0 PUSH2 0x2D4B PUSH1 0x1C DUP4 PUSH2 0x294F JUMP JUMPDEST SWAP2 POP PUSH2 0x2D56 DUP3 PUSH2 0x2D15 JUMP JUMPDEST PUSH1 0x20 DUP3 ADD SWAP1 POP SWAP2 SWAP1 POP JUMP JUMPDEST PUSH1 0x0 PUSH1 0x20 DUP3 ADD SWAP1 POP DUP2 DUP2 SUB PUSH1 0x0 DUP4 ADD MSTORE PUSH2 0x2D7A DUP2 PUSH2 0x2D3E JUMP JUMPDEST SWAP1 POP SWAP2 SWAP1 POP JUMP JUMPDEST PUSH1 0x0 DUP2 MLOAD SWAP1 POP PUSH2 0x2D90 DUP2 PUSH2 0x261B JUMP JUMPDEST SWAP3 SWAP2 POP POP JUMP JUMPDEST PUSH1 0x0 PUSH1 0x20 DUP3 DUP5 SUB SLT ISZERO PUSH2 0x2DAC JUMPI PUSH2 0x2DAB PUSH2 0x25E4 JUMP JUMPDEST JUMPDEST PUSH1 0x0 PUSH2 0x2DBA DUP5 DUP3 DUP6 ADD PUSH2 0x2D81 JUMP JUMPDEST SWAP2 POP POP SWAP3 SWAP2 POP POP JUMP JUMPDEST PUSH32 0x4E6F7420746865206F776E6572206F66204E4654000000000000000000000000 PUSH1 0x0 DUP3 ADD MSTORE POP JUMP JUMPDEST PUSH1 0x0 PUSH2 0x2DF9 PUSH1 0x14 DUP4 PUSH2 0x294F JUMP JUMPDEST SWAP2 POP PUSH2 0x2E04 DUP3 PUSH2 0x2DC3 JUMP JUMPDEST PUSH1 0x20 DUP3 ADD SWAP1 POP SWAP2 SWAP1 POP JUMP JUMPDEST PUSH1 0x0 PUSH1 0x20 DUP3 ADD SWAP1 POP DUP2 DUP2 SUB PUSH1 0x0 DUP4 ADD MSTORE PUSH2 0x2E28 DUP2 PUSH2 0x2DEC JUMP JUMPDEST SWAP1 POP SWAP2 SWAP1 POP JUMP JUMPDEST PUSH1 0x0 PUSH1 0x40 DUP3 ADD SWAP1 POP PUSH2 0x2E44 PUSH1 0x0 DUP4 ADD DUP6 PUSH2 0x26BD JUMP JUMPDEST PUSH2 0x2E51 PUSH1 0x20 DUP4 ADD DUP5 PUSH2 0x26BD JUMP JUMPDEST SWAP4 SWAP3 POP POP POP JUMP JUMPDEST PUSH1 0x0 DUP2 ISZERO ISZERO SWAP1 POP SWAP2 SWAP1 POP JUMP JUMPDEST PUSH2 0x2E6D DUP2 PUSH2 0x2E58 JUMP JUMPDEST DUP2 EQ PUSH2 0x2E78 JUMPI PUSH1 0x0 DUP1 REVERT JUMPDEST POP JUMP JUMPDEST PUSH1 0x0 DUP2 MLOAD SWAP1 POP PUSH2 0x2E8A DUP2 PUSH2 0x2E64 JUMP JUMPDEST SWAP3 SWAP2 POP POP JUMP JUMPDEST PUSH1 0x0 PUSH1 0x20 DUP3 DUP5 SUB SLT ISZERO PUSH2 0x2EA6 JUMPI PUSH2 0x2EA5 PUSH2 0x25E4 JUMP JUMPDEST JUMPDEST PUSH1 0x0 PUSH2 0x2EB4 DUP5 DUP3 DUP6 ADD PUSH2 0x2E7B JUMP JUMPDEST SWAP2 POP POP SWAP3 SWAP2 POP POP JUMP JUMPDEST PUSH32 0x4D61726B6574706C616365206E6F7420617070726F7665640000000000000000 PUSH1 0x0 DUP3 ADD MSTORE POP JUMP JUMPDEST PUSH1 0x0 PUSH2 0x2EF3 PUSH1 0x18 DUP4 PUSH2 0x294F JUMP JUMPDEST SWAP2 POP PUSH2 0x2EFE DUP3 PUSH2 0x2EBD JUMP JUMPDEST PUSH1 0x20 DUP3 ADD SWAP1 POP SWAP2 SWAP1 POP JUMP JUMPDEST PUSH1 0x0 PUSH1 0x20 DUP3 ADD SWAP1 POP DUP2 DUP2 SUB PUSH1 0x0 DUP4 ADD MSTORE PUSH2 0x2F22 DUP2 PUSH2 0x2EE6 JUMP JUMPDEST SWAP1 POP SWAP2 SWAP1 POP JUMP JUMPDEST PUSH32 0x416C7265616479206C6973746564000000000000000000000000000000000000 PUSH1 0x0 DUP3 ADD MSTORE POP JUMP JUMPDEST PUSH1 0x0 PUSH2 0x2F5F PUSH1 0xE DUP4 PUSH2 0x294F JUMP JUMPDEST SWAP2 POP PUSH2 0x2F6A DUP3 PUSH2 0x2F29 JUMP JUMPDEST PUSH1 0x20 DUP3 ADD SWAP1 POP SWAP2 SWAP1 POP JUMP JUMPDEST PUSH1 0x0 PUSH1 0x20 DUP3 ADD SWAP1 POP DUP2 DUP2 SUB PUSH1 0x0 DUP4 ADD MSTORE PUSH2 0x2F8E DUP2 PUSH2 0x2F52 JUMP JUMPDEST SWAP1 POP SWAP2 SWAP1 POP JUMP JUMPDEST PUSH1 0x0 PUSH2 0x2FA0 DUP3 PUSH2 0x2647 JUMP JUMPDEST SWAP2 POP PUSH32 0xFFFFFFFFFFFFFFFFFFFFFFFFFFFFFFFFFFFFFFFFFFFFFFFFFFFFFFFFFFFFFFFF DUP3 SUB PUSH2 0x2FD2 JUMPI PUSH2 0x2FD1 PUSH2 0x2BA5 JUMP JUMPDEST JUMPDEST PUSH1 0x1 DUP3 ADD SWAP1 POP SWAP2 SWAP1 POP JUMP JUMPDEST PUSH32 0x4C697374696E6720646F6573206E6F7420657869737400000000000000000000 PUSH1 0x0 DUP3 ADD MSTORE POP JUMP JUMPDEST PUSH1 0x0 PUSH2 0x3013 PUSH1 0x16 DUP4 PUSH2 0x294F JUMP JUMPDEST SWAP2 POP PUSH2 0x301E DUP3 PUSH2 0x2FDD JUMP JUMPDEST PUSH1 0x20 DUP3 ADD SWAP1 POP SWAP2 SWAP1 POP JUMP JUMPDEST PUSH1 0x0 PUSH1 0x20 DUP3 ADD SWAP1 POP DUP2 DUP2 SUB PUSH1 0x0 DUP4 ADD MSTORE PUSH2 0x3042 DUP2 PUSH2 0x3006 JUMP JUMPDEST SWAP1 POP SWAP2 SWAP1 POP JUMP JUMPDEST PUSH32 0x43616C6C6572206973206E6F742073656C6C6572000000000000000000000000 PUSH1 0x0 DUP3 ADD MSTORE POP JUMP JUMPDEST PUSH1 0x0 PUSH2 0x307F PUSH1 0x14 DUP4 PUSH2 0x294F JUMP JUMPDEST SWAP2 POP PUSH2 0x308A DUP3 PUSH2 0x3049 JUMP JUMPDEST PUSH1 0x20 DUP3 ADD SWAP1 POP SWAP2 SWAP1 POP JUMP JUMPDEST PUSH1 0x0 PUSH1 0x20 DUP3 ADD SWAP1 POP DUP2 DUP2 SUB PUSH1 0x0 DUP4 ADD MSTORE PUSH2 0x30AE DUP2 PUSH2 0x3072 JUMP JUMPDEST SWAP1 POP SWAP2 SWAP1 POP JUMP JUMPDEST PUSH32 0x496E76616C696420707269636500000000000000000000000000000000000000 PUSH1 0x0 DUP3 ADD MSTORE POP JUMP JUMPDEST PUSH1 0x0 PUSH2 0x30EB PUSH1 0xD DUP4 PUSH2 0x294F JUMP JUMPDEST SWAP2 POP PUSH2 0x30F6 DUP3 PUSH2 0x30B5 JUMP JUMPDEST PUSH1 0x20 DUP3 ADD SWAP1 POP SWAP2 SWAP1 POP JUMP JUMPDEST PUSH1 0x0 PUSH1 0x20 DUP3 ADD SWAP1 POP DUP2 DUP2 SUB PUSH1 0x0 DUP4 ADD MSTORE PUSH2 0x311A DUP2 PUSH2 0x30DE JUMP JUMPDEST SWAP1 POP SWAP2 SWAP1 POP JUMP JUMPDEST PUSH32 0x4E487B7100000000000000000000000000000000000000000000000000000000 PUSH1 0x0 MSTORE PUSH1 0x32 PUSH1 0x4 MSTORE PUSH1 0x24 PUSH1 0x0 REVERT JUMPDEST PUSH32 0x4E487B7100000000000000000000000000000000000000000000000000000000 PUSH1 0x0 MSTORE PUSH1 0x31 PUSH1 0x4 MSTORE PUSH1 0x24 PUSH1 0x0 REVERT INVALID LOG2 PUSH5 0x6970667358 0x22 SLT KECCAK256 0xFB DUP4 0x2E DUP13 0xC9 ADDMOD SAR CALLDATALOAD REVERT JUMPDEST CALLDATALOAD PUSH22 0x460731E3E960698934DB963B9339C6CFEBB3EAB86473 PUSH16 0x6C634300081C00330000000000000000 "},"methodIdentifiers":{"admin()":"f851a440","buyNFT(address,uint256)":"a82ba76f","cancelListing(address,uint256)":"b2ddee06","getAllListings()":"ae73ccec","getListing(address,uint256)":"88700d1c","listNFT(address,uint256,uint256)":"ad05f1b4","listings(address,uint256)":"0007df30","listingsList(uint256)":"c1171d61","platformFeeBasisPoints()":"c58bfb66","setPlatformFee(uint256)":"12e8e2c3","totalListings()":"c78b616c","totalVolumeTraded()":"5adc19c7","updateListing(address,uint256,uint256)":"f772adf1","withdrawTo(address)":"72b0d90c"}}}}}