{"contracts/Attacker.sol":{"ReentrantBuyer":{"abi":[{"inputs":[{"internalType":"address","name":"_marketplace","type":"address"},{"internalType":"address","name":"_nft","type":"address"},{"internalType":"uint256","name":"_tokenId","type":"uint256"}],"stateMutability":"nonpayable","type":"constructor"},{"inputs":[],"name":"attack","outputs":[],"stateMutability":"payable","type":"function"},{"inputs":[],"name":"attacked","outputs":[{"internalType":"bool","name":"","type":"bool"}],"stateMutability":"view","type":"function"},{"inputs":[],"name":"marketplace","outputs":[{"internalType":"contract Marketplace","name":"","type":"address"}],"stateMutability":"view","type":"function"},{"inputs":[],"name":"nft","outputs":[{"internalType":"address","name":"","type":"address"}],"stateMutability":"view","type":"function"},{"inputs":[],"name":"tokenId","outputs":[{"internalType":"uint256","name":"","type":"uint256"}],"stateMutability":"view","type":"function"}],"evm":{"bytecode":{"linkReferences":{},"object":"608060405234801561001057600080fd5b50604051610686380380610686833981810160405281019061003291906101fb565b61004c6770843ad6e990302260c01b61015f60201b60201c565b61006667b165f2f71402cd2360c01b61015f60201b60201c565b826000806101000a81548173ffffffffffffffffffffffffffffffffffffffff021916908373ffffffffffffffffffffffffffffffffffffffff1602179055506100c0671e5752eff6a6062960c01b61015f60201b60201c565b81600160006101000a81548173ffffffffffffffffffffffffffffffffffffffff021916908373ffffffffffffffffffffffffffffffffffffffff16021790555061011b67664eac97c82e453760c01b61015f60201b60201c565b8060028190555061013c67ee99c46cdfa731f360c01b61015f60201b60201c565b6000600360006101000a81548160ff02191690831515021790555050505061024e565b50565b600080fd5b600073ffffffffffffffffffffffffffffffffffffffff82169050919050565b600061019282610167565b9050919050565b6101a281610187565b81146101ad57600080fd5b50565b6000815190506101bf81610199565b92915050565b6000819050919050565b6101d8816101c5565b81146101e357600080fd5b50565b6000815190506101f5816101cf565b92915050565b60008060006060848603121561021457610213610162565b5b6000610222868287016101b0565b9350506020610233868287016101b0565b9250506040610244868287016101e6565b9150509250925092565b6104298061025d6000396000f3fe60806040526004361061004a5760003560e01c80631105f9411461004f57806317d70f7c1461007a57806347ccca02146100a55780639e5faafc146100d0578063abc8c7af146100da575b600080fd5b34801561005b57600080fd5b50610064610105565b60405161007191906102a5565b60405180910390f35b34801561008657600080fd5b5061008f610118565b60405161009c91906102d9565b60405180910390f35b3480156100b157600080fd5b506100ba61011e565b6040516100c79190610335565b60405180910390f35b6100d8610144565b005b3480156100e657600080fd5b506100ef610263565b6040516100fc91906103af565b60405180910390f35b600360009054906101000a900460ff1681565b60025481565b600160009054906101000a900473ffffffffffffffffffffffffffffffffffffffff1681565b61015867f016fce6abfe9d9f60c01b610287565b61016c67ce67a61930b7ecf360c01b610287565b6001600360006101000a81548160ff02191690831515021790555061019b67d17ce52cb1ffbefb60c01b610287565b6101af67df98afa9fdb1604d60c01b610287565b60008054906101000a900473ffffffffffffffffffffffffffffffffffffffff1673ffffffffffffffffffffffffffffffffffffffff1663a82ba76f34600160009054906101000a900473ffffffffffffffffffffffffffffffffffffffff166002546040518463ffffffff1660e01b815260040161022f9291906103ca565b6000604051808303818588803b15801561024857600080fd5b505af115801561025c573d6000803e3d6000fd5b5050505050565b60008054906101000a900473ffffffffffffffffffffffffffffffffffffffff1681565b50565b60008115159050919050565b61029f8161028a565b82525050565b60006020820190506102ba6000830184610296565b92915050565b6000819050919050565b6102d3816102c0565b82525050565b60006020820190506102ee60008301846102ca565b92915050565b600073ffffffffffffffffffffffffffffffffffffffff82169050919050565b600061031f826102f4565b9050919050565b61032f81610314565b82525050565b600060208201905061034a6000830184610326565b92915050565b6000819050919050565b600061037561037061036b846102f4565b610350565b6102f4565b9050919050565b60006103878261035a565b9050919050565b60006103998261037c565b9050919050565b6103a98161038e565b82525050565b60006020820190506103c460008301846103a0565b92915050565b60006040820190506103df6000830185610326565b6103ec60208301846102ca565b939250505056fea2646970667358221220690affd029c86a25a7f36d50474c01923a468dfb338cd074f951a693c322692764736f6c634300081c0033","opcodes":"PUSH1 0x80 PUSH1 0x40 MSTORE CALLVALUE DUP1 ISZERO PUSH2 0x10 JUMPI PUSH1 0x0 DUP1 REVERT JUMPDEST POP PUSH1 0x40 MLOAD PUSH2 0x686 CODESIZE SUB DUP1 PUSH2 0x686 DUP4 CODECOPY DUP2 DUP2 ADD PUSH1 0x40 MSTORE DUP2 ADD SWAP1 PUSH2 0x32 SWAP2 SWAP1 PUSH2 0x1FB JUMP JUMPDEST PUSH2 0x4C PUSH8 0x70843AD6E9903022 PUSH1 0xC0 SHL PUSH2 0x15F PUSH1 0x20 SHL PUSH1 0x20 SHR JUMP JUMPDEST PUSH2 0x66 PUSH8 0xB165F2F71402CD23 PUSH1 0xC0 SHL PUSH2 0x15F PUSH1 0x20 SHL PUSH1 0x20 SHR JUMP JUMPDEST DUP3 PUSH1 0x0 DUP1 PUSH2 0x100 EXP DUP2 SLOAD DUP2 PUSH20 0xFFFFFFFFFFFFFFFFFFFFFFFFFFFFFFFFFFFFFFFF MUL NOT AND SWAP1 DUP4 PUSH20 0xFFFFFFFFFFFFFFFFFFFFFFFFFFFFFFFFFFFFFFFF AND MUL OR SWAP1 SSTORE POP PUSH2 0xC0 PUSH8 0x1E5752EFF6A60629 PUSH1 0xC0 SHL PUSH2 0x15F PUSH1 0x20 SHL PUSH1 0x20 SHR JUMP JUMPDEST DUP2 PUSH1 0x1 PUSH1 0x0 PUSH2 0x100 EXP DUP2 SLOAD DUP2 PUSH20 0xFFFFFFFFFFFFFFFFFFFFFFFFFFFFFFFFFFFFFFFF MUL NOT AND SWAP1 DUP4 PUSH20 0xFFFFFFFFFFFFFFFFFFFFFFFFFFFFFFFFFFFFFFFF AND MUL OR SWAP1 SSTORE POP PUSH2 0x11B PUSH8 0x664EAC97C82E4537 PUSH1 0xC0 SHL PUSH2 0x15F PUSH1 0x20 SHL PUSH1 0x20 SHR JUMP JUMPDEST DUP1 PUSH1 0x2 DUP2 SWAP1 SSTORE POP PUSH2 0x13C PUSH8 0xEE99C46CDFA731F3 PUSH1 0xC0 SHL PUSH2 0x15F PUSH1 0x20 SHL PUSH1 0x20 SHR JUMP JUMPDEST PUSH1 0x0 PUSH1 0x3 PUSH1 0x0 PUSH2 0x100 EXP DUP2 SLOAD DUP2 PUSH1 0xFF MUL NOT AND SWAP1 DUP4 ISZERO ISZERO MUL OR SWAP1 SSTORE POP POP POP POP PUSH2 0x24E JUMP JUMPDEST POP JUMP JUMPDEST PUSH1 0x0 DUP1 REVERT JUMPDEST PUSH1 0x0 PUSH20 0xFFFFFFFFFFFFFFFFFFFFFFFFFFFFFFFFFFFFFFFF DUP3 AND SWAP1 POP SWAP2 SWAP1 POP JUMP JUMPDEST PUSH1 0x0 PUSH2 0x192 DUP3 PUSH2 0x167 JUMP JUMPDEST SWAP1 POP SWAP2 SWAP1 POP JUMP JUMPDEST PUSH2 0x1A2 DUP2 PUSH2 0x187 JUMP JUMPDEST DUP2 EQ PUSH2 0x1AD JUMPI PUSH1 0x0 DUP1 REVERT JUMPDEST POP JUMP JUMPDEST PUSH1 0x0 DUP2 MLOAD SWAP1 POP PUSH2 0x1BF DUP2 PUSH2 0x199 JUMP JUMPDEST SWAP3 SWAP2 POP POP JUMP JUMPDEST PUSH1 0x0 DUP2 SWAP1 POP SWAP2 SWAP1 POP JUMP JUMPDEST PUSH2 0x1D8 DUP2 PUSH2 0x1C5 JUMP JUMPDEST DUP2 EQ PUSH2 0x1E3 JUMPI PUSH1 0x0 DUP1 REVERT JUMPDEST POP JUMP JUMPDEST PUSH1 0x0 DUP2 MLOAD SWAP1 POP PUSH2 0x1F5 DUP2 PUSH2 0x1CF JUMP JUMPDEST SWAP3 SWAP2 POP POP JUMP JUMPDEST PUSH1 0x0 DUP1 PUSH1 0x0 PUSH1 0x60 DUP5 DUP7 SUB SLT ISZERO PUSH2 0x214 JUMPI PUSH2 0x213 PUSH2 0x162 JUMP JUMPDEST JUMPDEST PUSH1 0x0 PUSH2 0x222 DUP7 DUP3 DUP8 ADD PUSH2 0x1B0 JUMP JUMPDEST SWAP4 POP POP PUSH1 0x20 PUSH2 0x233 DUP7 DUP3 DUP8 ADD PUSH2 0x1B0 JUMP JUMPDEST SWAP3 POP POP PUSH1 0x40 PUSH2 0x244 DUP7 DUP3 DUP8 ADD PUSH2 0x1E6 JUMP JUMPDEST SWAP2 POP POP SWAP3 POP SWAP3 POP SWAP3 JUMP JUMPDEST PUSH2 0x429 DUP1 PUSH2 0x25D PUSH1 0x0 CODECOPY PUSH1 0x0 RETURN INVALID PUSH1 0x80 PUSH1 0x40 MSTORE PUSH1 0x4 CALLDATASIZE LT PUSH2 0x4A JUMPI PUSH1 0x0 CALLDATALOAD PUSH1 0xE0 SHR DUP1 PUSH4 0x1105F941 EQ PUSH2 0x4F JUMPI DUP1 PUSH4 0x17D70F7C EQ PUSH2 0x7A JUMPI DUP1 PUSH4 0x47CCCA02 EQ PUSH2 0xA5 JUMPI DUP1 PUSH4 0x9E5FAAFC EQ PUSH2 0xD0 JUMPI DUP1 PUSH4 0xABC8C7AF EQ PUSH2 0xDA JUMPI JUMPDEST PUSH1 0x0 DUP1 REVERT JUMPDEST CALLVALUE DUP1 ISZERO PUSH2 0x5B JUMPI PUSH1 0x0 DUP1 REVERT JUMPDEST POP PUSH2 0x64 PUSH2 0x105 JUMP JUMPDEST PUSH1 0x40 MLOAD PUSH2 0x71 SWAP2 SWAP1 PUSH2 0x2A5 JUMP JUMPDEST PUSH1 0x40 MLOAD DUP1 SWAP2 SUB SWAP1 RETURN JUMPDEST CALLVALUE DUP1 ISZERO PUSH2 0x86 JUMPI PUSH1 0x0 DUP1 REVERT JUMPDEST POP PUSH2 0x8F PUSH2 0x118 JUMP JUMPDEST PUSH1 0x40 MLOAD PUSH2 0x9C SWAP2 SWAP1 PUSH2 0x2D9 JUMP JUMPDEST PUSH1 0x40 MLOAD DUP1 SWAP2 SUB SWAP1 RETURN JUMPDEST CALLVALUE DUP1 ISZERO PUSH2 0xB1 JUMPI PUSH1 0x0 DUP1 REVERT JUMPDEST POP PUSH2 0xBA PUSH2 0x11E JUMP JUMPDEST PUSH1 0x40 MLOAD PUSH2 0xC7 SWAP2 SWAP1 PUSH2 0x335 JUMP JUMPDEST PUSH1 0x40 MLOAD DUP1 SWAP2 SUB SWAP1 RETURN JUMPDEST PUSH2 0xD8 PUSH2 0x144 JUMP JUMPDEST STOP JUMPDEST CALLVALUE DUP1 ISZERO PUSH2 0xE6 JUMPI PUSH1 0x0 DUP1 REVERT JUMPDEST POP PUSH2 0xEF PUSH2 0x263 JUMP JUMPDEST PUSH1 0x40 MLOAD PUSH2 0xFC SWAP2 SWAP1 PUSH2 0x3AF JUMP JUMPDEST PUSH1 0x40 MLOAD DUP1 SWAP2 SUB SWAP1 RETURN JUMPDEST PUSH1 0x3 PUSH1 0x0 SWAP1 SLOAD SWAP1 PUSH2 0x100 EXP SWAP1 DIV PUSH1 0xFF AND DUP2 JUMP JUMPDEST PUSH1 0x2 SLOAD DUP2 JUMP JUMPDEST PUSH1 0x1 PUSH1 0x0 SWAP1 SLOAD SWAP1 PUSH2 0x100 EXP SWAP1 DIV PUSH20 0xFFFFFFFFFFFFFFFFFFFFFFFFFFFFFFFFFFFFFFFF AND DUP2 JUMP JUMPDEST PUSH2 0x158 PUSH8 0xF016FCE6ABFE9D9F PUSH1 0xC0 SHL PUSH2 0x287 JUMP JUMPDEST PUSH2 0x16C PUSH8 0xCE67A61930B7ECF3 PUSH1 0xC0 SHL PUSH2 0x287 JUMP JUMPDEST PUSH1 0x1 PUSH1 0x3 PUSH1 0x0 PUSH2 0x100 EXP DUP2 SLOAD DUP2 PUSH1 0xFF MUL NOT AND SWAP1 DUP4 ISZERO ISZERO MUL OR SWAP1 SSTORE POP PUSH2 0x19B PUSH8 0xD17CE52CB1FFBEFB PUSH1 0xC0 SHL PUSH2 0x287 JUMP JUMPDEST PUSH2 0x1AF PUSH8 0xDF98AFA9FDB1604D PUSH1 0xC0 SHL PUSH2 0x287 JUMP JUMPDEST PUSH1 0x0 DUP1 SLOAD SWAP1 PUSH2 0x100 EXP SWAP1 DIV PUSH20 0xFFFFFFFFFFFFFFFFFFFFFFFFFFFFFFFFFFFFFFFF AND PUSH20 0xFFFFFFFFFFFFFFFFFFFFFFFFFFFFFFFFFFFFFFFF AND PUSH4 0xA82BA76F CALLVALUE PUSH1 0x1 PUSH1 0x0 SWAP1 SLOAD SWAP1 PUSH2 0x100 EXP SWAP1 DIV PUSH20 0xFFFFFFFFFFFFFFFFFFFFFFFFFFFFFFFFFFFFFFFF AND PUSH1 0x2 SLOAD PUSH1 0x40 MLOAD DUP5 PUSH4 0xFFFFFFFF AND PUSH1 0xE0 SHL DUP2 MSTORE PUSH1 0x4 ADD PUSH2 0x22F SWAP3 SWAP2 SWAP1 PUSH2 0x3CA JUMP JUMPDEST PUSH1 0x0 PUSH1 0x40 MLOAD DUP1 DUP4 SUB DUP2 DUP6 DUP9 DUP1 EXTCODESIZE ISZERO DUP1 ISZERO PUSH2 0x248 JUMPI PUSH1 0x0 DUP1 REVERT JUMPDEST POP GAS CALL ISZERO DUP1 ISZERO PUSH2 0x25C JUMPI RETURNDATASIZE PUSH1 0x0 DUP1 RETURNDATACOPY RETURNDATASIZE PUSH1 0x0 REVERT JUMPDEST POP POP POP POP POP JUMP JUMPDEST PUSH1 0x0 DUP1 SLOAD SWAP1 PUSH2 0x100 EXP SWAP1 DIV PUSH20 0xFFFFFFFFFFFFFFFFFFFFFFFFFFFFFFFFFFFFFFFF AND DUP2 JUMP JUMPDEST POP JUMP JUMPDEST PUSH1 0x0 DUP2 ISZERO ISZERO SWAP1 POP SWAP2 SWAP1 POP JUMP JUMPDEST PUSH2 0x29F DUP2 PUSH2 0x28A JUMP JUMPDEST DUP3 MSTORE POP POP JUMP JUMPDEST PUSH1 0x0 PUSH1 0x20 DUP3 ADD SWAP1 POP PUSH2 0x2BA PUSH1 0x0 DUP4 ADD DUP5 PUSH2 0x296 JUMP JUMPDEST SWAP3 SWAP2 POP POP JUMP JUMPDEST PUSH1 0x0 DUP2 SWAP1 POP SWAP2 SWAP1 POP JUMP JUMPDEST PUSH2 0x2D3 DUP2 PUSH2 0x2C0 JUMP JUMPDEST DUP3 MSTORE POP POP JUMP JUMPDEST PUSH1 0x0 PUSH1 0x20 DUP3 ADD SWAP1 POP PUSH2 0x2EE PUSH1 0x0 DUP4 ADD DUP5 PUSH2 0x2CA JUMP JUMPDEST SWAP3 SWAP2 POP POP JUMP JUMPDEST PUSH1 0x0 PUSH20 0xFFFFFFFFFFFFFFFFFFFFFFFFFFFFFFFFFFFFFFFF DUP3 AND SWAP1 POP SWAP2 SWAP1 POP JUMP JUMPDEST PUSH1 0x0 PUSH2 0x31F DUP3 PUSH2 0x2F4 JUMP JUMPDEST SWAP1 POP SWAP2 SWAP1 POP JUMP JUMPDEST PUSH2 0x32F DUP2 PUSH2 0x314 JUMP JUMPDEST DUP3 MSTORE POP POP JUMP JUMPDEST PUSH1 0x0 PUSH1 0x20 DUP3 ADD SWAP1 POP PUSH2 0x34A PUSH1 0x0 DUP4 ADD DUP5 PUSH2 0x326 JUMP JUMPDEST SWAP3 SWAP2 POP POP JUMP JUMPDEST PUSH1 0x0 DUP2 SWAP1 POP SWAP2 SWAP1 POP JUMP JUMPDEST PUSH1 0x0 PUSH2 0x375 PUSH2 0x370 PUSH2 0x36B DUP5 PUSH2 0x2F4 JUMP JUMPDEST PUSH2 0x350 JUMP JUMPDEST PUSH2 0x2F4 JUMP JUMPDEST SWAP1 POP SWAP2 SWAP1 POP JUMP JUMPDEST PUSH1 0x0 PUSH2 0x387 DUP3 PUSH2 0x35A JUMP JUMPDEST SWAP1 POP SWAP2 SWAP1 POP JUMP JUMPDEST PUSH1 0x0 PUSH2 0x399 DUP3 PUSH2 0x37C JUMP JUMPDEST SWAP1 POP SWAP2 SWAP1 POP JUMP JUMPDEST PUSH2 0x3A9 DUP2 PUSH2 0x38E JUMP JUMPDEST DUP3 MSTORE POP POP JUMP JUMPDEST PUSH1 0x0 PUSH1 0x20 DUP3 ADD SWAP1 POP PUSH2 0x3C4 PUSH1 0x0 DUP4 ADD DUP5 PUSH2 0x3A0 JUMP JUMPDEST SWAP3 SWAP2 POP POP JUMP JUMPDEST PUSH1 0x0 PUSH1 0x40 DUP3 ADD SWAP1 POP PUSH2 0x3DF PUSH1 0x0 DUP4 ADD DUP6 PUSH2 0x326 JUMP JUMPDEST PUSH2 0x3EC PUSH1 0x20 DUP4 ADD DUP5 PUSH2 0x2CA JUMP JUMPDEST SWAP4 SWAP3 POP POP POP JUMP INVALID LOG2 PUSH5 0x6970667358 0x22 SLT KECCAK256 PUSH10 0xAFFD029C86A25A7F36D POP SELFBALANCE 0x4C ADD SWAP3 GASPRICE CHAINID DUP14 0xFB CALLER DUP13 0xD0 PUSH21 0xF951A693C322692764736F6C634300081C00330000 "},"methodIdentifiers":{"attack()":"9e5faafc","attacked()":"1105f941","marketplace()":"abc8c7af","nft()":"47ccca02","tokenId()":"17d70f7c"}}}}}