{
  "_format": "hh-sol-artifact-1",
  "contractName": "ReentrantBuyer",
  "sourceName": "contracts/Attacker.sol",
  "abi": [
    {
      "inputs": [
        {
          "internalType": "address",
          "name": "_marketplace",
          "type": "address"
        },
        {
          "internalType": "address",
          "name": "_nft",
          "type": "address"
        },
        {
          "internalType": "uint256",
          "name": "_tokenId",
          "type": "uint256"
        }
      ],
      "stateMutability": "nonpayable",
      "type": "constructor"
    },
    {
      "inputs": [],
      "name": "attack",
      "outputs": [],
      "stateMutability": "payable",
      "type": "function"
    },
    {
      "inputs": [],
      "name": "attacked",
      "outputs": [
        {
          "internalType": "bool",
          "name": "",
          "type": "bool"
        }
      ],
      "stateMutability": "view",
      "type": "function"
    },
    {
      "inputs": [],
      "name": "marketplace",
      "outputs": [
        {
          "internalType": "contract Marketplace",
          "name": "",
          "type": "address"
        }
      ],
      "stateMutability": "view",
      "type": "function"
    },
    {
      "inputs": [],
      "name": "nft",
      "outputs": [
        {
          "internalType": "address",
          "name": "",
          "type": "address"
        }
      ],
      "stateMutability": "view",
      "type": "function"
    },
    {
      "inputs": [],
      "name": "tokenId",
      "outputs": [
        {
          "internalType": "uint256",
          "name": "",
          "type": "uint256"
        }
      ],
      "stateMutability": "view",
      "type": "function"
    }
  ],
  "bytecode": "0x608060405234801561001057600080fd5b506040516105ae3803806105ae83398181016040528101906100329190610176565b826000806101000a81548173ffffffffffffffffffffffffffffffffffffffff021916908373ffffffffffffffffffffffffffffffffffffffff16021790555081600160006101000a81548173ffffffffffffffffffffffffffffffffffffffff021916908373ffffffffffffffffffffffffffffffffffffffff160217905550806002819055506000600360006101000a81548160ff0219169083151502179055505050506101c9565b600080fd5b600073ffffffffffffffffffffffffffffffffffffffff82169050919050565b600061010d826100e2565b9050919050565b61011d81610102565b811461012857600080fd5b50565b60008151905061013a81610114565b92915050565b6000819050919050565b61015381610140565b811461015e57600080fd5b50565b6000815190506101708161014a565b92915050565b60008060006060848603121561018f5761018e6100dd565b5b600061019d8682870161012b565b93505060206101ae8682870161012b565b92505060406101bf86828701610161565b9150509250925092565b6103d6806101d86000396000f3fe60806040526004361061004a5760003560e01c80631105f9411461004f57806317d70f7c1461007a57806347ccca02146100a55780639e5faafc146100d0578063abc8c7af146100da575b600080fd5b34801561005b57600080fd5b50610064610105565b6040516100719190610252565b60405180910390f35b34801561008657600080fd5b5061008f610118565b60405161009c9190610286565b60405180910390f35b3480156100b157600080fd5b506100ba61011e565b6040516100c791906102e2565b60405180910390f35b6100d8610144565b005b3480156100e657600080fd5b506100ef610213565b6040516100fc919061035c565b60405180910390f35b600360009054906101000a900460ff1681565b60025481565b600160009054906101000a900473ffffffffffffffffffffffffffffffffffffffff1681565b6001600360006101000a81548160ff02191690831515021790555060008054906101000a900473ffffffffffffffffffffffffffffffffffffffff1673ffffffffffffffffffffffffffffffffffffffff1663a82ba76f34600160009054906101000a900473ffffffffffffffffffffffffffffffffffffffff166002546040518463ffffffff1660e01b81526004016101df929190610377565b6000604051808303818588803b1580156101f857600080fd5b505af115801561020c573d6000803e3d6000fd5b5050505050565b60008054906101000a900473ffffffffffffffffffffffffffffffffffffffff1681565b60008115159050919050565b61024c81610237565b82525050565b60006020820190506102676000830184610243565b92915050565b6000819050919050565b6102808161026d565b82525050565b600060208201905061029b6000830184610277565b92915050565b600073ffffffffffffffffffffffffffffffffffffffff82169050919050565b60006102cc826102a1565b9050919050565b6102dc816102c1565b82525050565b60006020820190506102f760008301846102d3565b92915050565b6000819050919050565b600061032261031d610318846102a1565b6102fd565b6102a1565b9050919050565b600061033482610307565b9050919050565b600061034682610329565b9050919050565b6103568161033b565b82525050565b6000602082019050610371600083018461034d565b92915050565b600060408201905061038c60008301856102d3565b6103996020830184610277565b939250505056fea2646970667358221220f5bdadf3cf0921e2813550b682ad89bbf417c1a6293a3a49a43f6e83b62a02f464736f6c634300081c0033",
  "linkReferences": {},
  "deployedLinkReferences": {}
}